{
	"data": {
		"bytecode": {
			"linkReferences": {},
			"object": "608060405234801561000f575f80fd5b506040516114f43803806114f483398181016040528101906100319190610272565b835f803373ffffffffffffffffffffffffffffffffffffffff1673ffffffffffffffffffffffffffffffffffffffff1681526020019081526020015f20819055508360028190555082600390816100889190610512565b508160045f6101000a81548160ff021916908360ff16021790555080600590816100b29190610512565b50505050506105e1565b5f604051905090565b5f80fd5b5f80fd5b5f819050919050565b6100df816100cd565b81146100e9575f80fd5b50565b5f815190506100fa816100d6565b92915050565b5f80fd5b5f80fd5b5f601f19601f8301169050919050565b7f4e487b71000000000000000000000000000000000000000000000000000000005f52604160045260245ffd5b61014e82610108565b810181811067ffffffffffffffff8211171561016d5761016c610118565b5b80604052505050565b5f61017f6100bc565b905061018b8282610145565b919050565b5f67ffffffffffffffff8211156101aa576101a9610118565b5b6101b382610108565b9050602081019050919050565b8281835e5f83830152505050565b5f6101e06101db84610190565b610176565b9050828152602081018484840111156101fc576101fb610104565b5b6102078482856101c0565b509392505050565b5f82601f83011261022357610222610100565b5b81516102338482602086016101ce565b91505092915050565b5f60ff82169050919050565b6102518161023c565b811461025b575f80fd5b50565b5f8151905061026c81610248565b92915050565b5f805f806080858703121561028a576102896100c5565b5b5f610297878288016100ec565b945050602085015167ffffffffffffffff8111156102b8576102b76100c9565b5b6102c48782880161020f565b93505060406102d58782880161025e565b925050606085015167ffffffffffffffff8111156102f6576102f56100c9565b5b6103028782880161020f565b91505092959194509250565b5f81519050919050565b7f4e487b71000000000000000000000000000000000000000000000000000000005f52602260045260245ffd5b5f600282049050600182168061035c57607f821691505b60208210810361036f5761036e610318565b5b50919050565b5f819050815f5260205f209050919050565b5f6020601f8301049050919050565b5f82821b905092915050565b5f600883026103d17fffffffffffffffffffffffffffffffffffffffffffffffffffffffffffffffff82610396565b6103db8683610396565b95508019841693508086168417925050509392505050565b5f819050919050565b5f61041661041161040c846100cd565b6103f3565b6100cd565b9050919050565b5f819050919050565b61042f836103fc565b61044361043b8261041d565b8484546103a2565b825550505050565b5f90565b61045761044b565b610462818484610426565b505050565b5b818110156104855761047a5f8261044f565b600181019050610468565b5050565b601f8211156104ca5761049b81610375565b6104a484610387565b810160208510156104b3578190505b6104c76104bf85610387565b830182610467565b50505b505050565b5f82821c905092915050565b5f6104ea5f19846008026104cf565b1980831691505092915050565b5f61050283836104db565b9150826002028217905092915050565b61051b8261030e565b67ffffffffffffffff81111561053457610533610118565b5b61053e8254610345565b610549828285610489565b5f60209050601f83116001811461057a575f8415610568578287015190505b61057285826104f7565b8655506105d9565b601f19841661058886610375565b5f5b828110156105af5784890151825560018201915060208501945060208101905061058a565b868310156105cc57848901516105c8601f8916826104db565b8355505b6001600288020188555050505b505050505050565b610f06806105ee5f395ff3fe608060405234801561000f575f80fd5b50600436106100b2575f3560e01c80635c6581651161006f5780635c658165146101a057806370a08231146101d0578063793312ed1461020057806395d89b411461021c578063a9059cbb1461023a578063dd62ed3e1461026a576100b2565b806306fdde03146100b6578063095ea7b3146100d457806318160ddd1461010457806323b872dd1461012257806327e235e314610152578063313ce56714610182575b5f80fd5b6100be61029a565b6040516100cb9190610a8d565b60405180910390f35b6100ee60048036038101906100e99190610b3e565b610326565b6040516100fb9190610b96565b60405180910390f35b61010c610413565b6040516101199190610bbe565b60405180910390f35b61013c60048036038101906101379190610bd7565b610419565b6040516101499190610b96565b60405180910390f35b61016c60048036038101906101679190610c27565b6106ed565b6040516101799190610bbe565b60405180910390f35b61018a610701565b6040516101979190610c6d565b60405180910390f35b6101ba60048036038101906101b59190610c86565b610713565b6040516101c79190610bbe565b60405180910390f35b6101ea60048036038101906101e59190610c27565b610733565b6040516101f79190610bbe565b60405180910390f35b61021a60048036038101906102159190610b3e565b610778565b005b61022461077c565b6040516102319190610a8d565b60405180910390f35b610254600480360381019061024f9190610b3e565b610808565b6040516102619190610b96565b60405180910390f35b610284600480360381019061027f9190610c86565b61099b565b6040516102919190610bbe565b60405180910390f35b600380546102a790610cf1565b80601f01602080910402602001604051908101604052809291908181526020018280546102d390610cf1565b801561031e5780601f106102f55761010080835404028352916020019161031e565b820191905f5260205f20905b81548152906001019060200180831161030157829003601f168201915b505050505081565b5f8160015f3373ffffffffffffffffffffffffffffffffffffffff1673ffffffffffffffffffffffffffffffffffffffff1681526020019081526020015f205f8573ffffffffffffffffffffffffffffffffffffffff1673ffffffffffffffffffffffffffffffffffffffff1681526020019081526020015f20819055508273ffffffffffffffffffffffffffffffffffffffff163373ffffffffffffffffffffffffffffffffffffffff167f8c5be1e5ebec7d5bd14f71427d1e84f3dd0314c0f7b2291e5b200ac8c7c3b925846040516104019190610bbe565b60405180910390a36001905092915050565b60025481565b5f8060015f8673ffffffffffffffffffffffffffffffffffffffff1673ffffffffffffffffffffffffffffffffffffffff1681526020019081526020015f205f3373ffffffffffffffffffffffffffffffffffffffff1673ffffffffffffffffffffffffffffffffffffffff1681526020019081526020015f20549050825f808773ffffffffffffffffffffffffffffffffffffffff1673ffffffffffffffffffffffffffffffffffffffff1681526020019081526020015f2054101580156104e25750828110155b610521576040517f08c379a000000000000000000000000000000000000000000000000000000000815260040161051890610d91565b60405180910390fd5b825f808673ffffffffffffffffffffffffffffffffffffffff1673ffffffffffffffffffffffffffffffffffffffff1681526020019081526020015f205f82825461056c9190610ddc565b92505081905550825f808773ffffffffffffffffffffffffffffffffffffffff1673ffffffffffffffffffffffffffffffffffffffff1681526020019081526020015f205f8282546105be9190610e0f565b925050819055507fffffffffffffffffffffffffffffffffffffffffffffffffffffffffffffffff81101561067c578260015f8773ffffffffffffffffffffffffffffffffffffffff1673ffffffffffffffffffffffffffffffffffffffff1681526020019081526020015f205f3373ffffffffffffffffffffffffffffffffffffffff1673ffffffffffffffffffffffffffffffffffffffff1681526020019081526020015f205f8282546106749190610e0f565b925050819055505b8373ffffffffffffffffffffffffffffffffffffffff168573ffffffffffffffffffffffffffffffffffffffff167fddf252ad1be2c89b69c2b068fc378daa952ba7f163c4a11628f55a4df523b3ef856040516106d99190610bbe565b60405180910390a360019150509392505050565b5f602052805f5260405f205f915090505481565b60045f9054906101000a900460ff1681565b6001602052815f5260405f20602052805f5260405f205f91509150505481565b5f805f8373ffffffffffffffffffffffffffffffffffffffff1673ffffffffffffffffffffffffffffffffffffffff1681526020019081526020015f20549050919050565b5050565b6005805461078990610cf1565b80601f01602080910402602001604051908101604052809291908181526020018280546107b590610cf1565b80156108005780601f106107d757610100808354040283529160200191610800565b820191905f5260205f20905b8154815290600101906020018083116107e357829003601f168201915b505050505081565b5f815f803373ffffffffffffffffffffffffffffffffffffffff1673ffffffffffffffffffffffffffffffffffffffff1681526020019081526020015f20541015610888576040517f08c379a000000000000000000000000000000000000000000000000000000000815260040161087f90610eb2565b60405180910390fd5b815f803373ffffffffffffffffffffffffffffffffffffffff1673ffffffffffffffffffffffffffffffffffffffff1681526020019081526020015f205f8282546108d39190610e0f565b92505081905550815f808573ffffffffffffffffffffffffffffffffffffffff1673ffffffffffffffffffffffffffffffffffffffff1681526020019081526020015f205f8282546109259190610ddc565b925050819055508273ffffffffffffffffffffffffffffffffffffffff163373ffffffffffffffffffffffffffffffffffffffff167fddf252ad1be2c89b69c2b068fc378daa952ba7f163c4a11628f55a4df523b3ef846040516109899190610bbe565b60405180910390a36001905092915050565b5f60015f8473ffffffffffffffffffffffffffffffffffffffff1673ffffffffffffffffffffffffffffffffffffffff1681526020019081526020015f205f8373ffffffffffffffffffffffffffffffffffffffff1673ffffffffffffffffffffffffffffffffffffffff1681526020019081526020015f2054905092915050565b5f81519050919050565b5f82825260208201905092915050565b8281835e5f83830152505050565b5f601f19601f8301169050919050565b5f610a5f82610a1d565b610a698185610a27565b9350610a79818560208601610a37565b610a8281610a45565b840191505092915050565b5f6020820190508181035f830152610aa58184610a55565b905092915050565b5f80fd5b5f73ffffffffffffffffffffffffffffffffffffffff82169050919050565b5f610ada82610ab1565b9050919050565b610aea81610ad0565b8114610af4575f80fd5b50565b5f81359050610b0581610ae1565b92915050565b5f819050919050565b610b1d81610b0b565b8114610b27575f80fd5b50565b5f81359050610b3881610b14565b92915050565b5f8060408385031215610b5457610b53610aad565b5b5f610b6185828601610af7565b9250506020610b7285828601610b2a565b9150509250929050565b5f8115159050919050565b610b9081610b7c565b82525050565b5f602082019050610ba95f830184610b87565b92915050565b610bb881610b0b565b82525050565b5f602082019050610bd15f830184610baf565b92915050565b5f805f60608486031215610bee57610bed610aad565b5b5f610bfb86828701610af7565b9350506020610c0c86828701610af7565b9250506040610c1d86828701610b2a565b9150509250925092565b5f60208284031215610c3c57610c3b610aad565b5b5f610c4984828501610af7565b91505092915050565b5f60ff82169050919050565b610c6781610c52565b82525050565b5f602082019050610c805f830184610c5e565b92915050565b5f8060408385031215610c9c57610c9b610aad565b5b5f610ca985828601610af7565b9250506020610cba85828601610af7565b9150509250929050565b7f4e487b71000000000000000000000000000000000000000000000000000000005f52602260045260245ffd5b5f6002820490506001821680610d0857607f821691505b602082108103610d1b57610d1a610cc4565b5b50919050565b7f746f6b656e2062616c616e6365206f7220616c6c6f77616e6365206973206c6f5f8201527f776572207468616e20616d6f756e742072657175657374656400000000000000602082015250565b5f610d7b603983610a27565b9150610d8682610d21565b604082019050919050565b5f6020820190508181035f830152610da881610d6f565b9050919050565b7f4e487b71000000000000000000000000000000000000000000000000000000005f52601160045260245ffd5b5f610de682610b0b565b9150610df183610b0b565b9250828201905080821115610e0957610e08610daf565b5b92915050565b5f610e1982610b0b565b9150610e2483610b0b565b9250828203905081811115610e3c57610e3b610daf565b5b92915050565b7f746f6b656e2062616c616e6365206973206c6f776572207468616e20746865205f8201527f76616c7565207265717565737465640000000000000000000000000000000000602082015250565b5f610e9c602f83610a27565b9150610ea782610e42565b604082019050919050565b5f6020820190508181035f830152610ec981610e90565b905091905056fea264697066735822122035b3dafdee8f345418d1749c19273e168efc3812cd4b841fdab363d0c8b155e364736f6c634300081a0033",
			"opcodes": "PUSH1 0x80 PUSH1 0x40 MSTORE CALLVALUE DUP1 ISZERO PUSH2 0xF JUMPI PUSH0 DUP1 REVERT JUMPDEST POP PUSH1 0x40 MLOAD PUSH2 0x14F4 CODESIZE SUB DUP1 PUSH2 0x14F4 DUP4 CODECOPY DUP2 DUP2 ADD PUSH1 0x40 MSTORE DUP2 ADD SWAP1 PUSH2 0x31 SWAP2 SWAP1 PUSH2 0x272 JUMP JUMPDEST DUP4 PUSH0 DUP1 CALLER PUSH20 0xFFFFFFFFFFFFFFFFFFFFFFFFFFFFFFFFFFFFFFFF AND PUSH20 0xFFFFFFFFFFFFFFFFFFFFFFFFFFFFFFFFFFFFFFFF AND DUP2 MSTORE PUSH1 0x20 ADD SWAP1 DUP2 MSTORE PUSH1 0x20 ADD PUSH0 KECCAK256 DUP2 SWAP1 SSTORE POP DUP4 PUSH1 0x2 DUP2 SWAP1 SSTORE POP DUP3 PUSH1 0x3 SWAP1 DUP2 PUSH2 0x88 SWAP2 SWAP1 PUSH2 0x512 JUMP JUMPDEST POP DUP2 PUSH1 0x4 PUSH0 PUSH2 0x100 EXP DUP2 SLOAD DUP2 PUSH1 0xFF MUL NOT AND SWAP1 DUP4 PUSH1 0xFF AND MUL OR SWAP1 SSTORE POP DUP1 PUSH1 0x5 SWAP1 DUP2 PUSH2 0xB2 SWAP2 SWAP1 PUSH2 0x512 JUMP JUMPDEST POP POP POP POP POP PUSH2 0x5E1 JUMP JUMPDEST PUSH0 PUSH1 0x40 MLOAD SWAP1 POP SWAP1 JUMP JUMPDEST PUSH0 DUP1 REVERT JUMPDEST PUSH0 DUP1 REVERT JUMPDEST PUSH0 DUP2 SWAP1 POP SWAP2 SWAP1 POP JUMP JUMPDEST PUSH2 0xDF DUP2 PUSH2 0xCD JUMP JUMPDEST DUP2 EQ PUSH2 0xE9 JUMPI PUSH0 DUP1 REVERT JUMPDEST POP JUMP JUMPDEST PUSH0 DUP2 MLOAD SWAP1 POP PUSH2 0xFA DUP2 PUSH2 0xD6 JUMP JUMPDEST SWAP3 SWAP2 POP POP JUMP JUMPDEST PUSH0 DUP1 REVERT JUMPDEST PUSH0 DUP1 REVERT JUMPDEST PUSH0 PUSH1 0x1F NOT PUSH1 0x1F DUP4 ADD AND SWAP1 POP SWAP2 SWAP1 POP JUMP JUMPDEST PUSH32 0x4E487B7100000000000000000000000000000000000000000000000000000000 PUSH0 MSTORE PUSH1 0x41 PUSH1 0x4 MSTORE PUSH1 0x24 PUSH0 REVERT JUMPDEST PUSH2 0x14E DUP3 PUSH2 0x108 JUMP JUMPDEST DUP2 ADD DUP2 DUP2 LT PUSH8 0xFFFFFFFFFFFFFFFF DUP3 GT OR ISZERO PUSH2 0x16D JUMPI PUSH2 0x16C PUSH2 0x118 JUMP JUMPDEST JUMPDEST DUP1 PUSH1 0x40 MSTORE POP POP POP JUMP JUMPDEST PUSH0 PUSH2 0x17F PUSH2 0xBC JUMP JUMPDEST SWAP1 POP PUSH2 0x18B DUP3 DUP3 PUSH2 0x145 JUMP JUMPDEST SWAP2 SWAP1 POP JUMP JUMPDEST PUSH0 PUSH8 0xFFFFFFFFFFFFFFFF DUP3 GT ISZERO PUSH2 0x1AA JUMPI PUSH2 0x1A9 PUSH2 0x118 JUMP JUMPDEST JUMPDEST PUSH2 0x1B3 DUP3 PUSH2 0x108 JUMP JUMPDEST SWAP1 POP PUSH1 0x20 DUP2 ADD SWAP1 POP SWAP2 SWAP1 POP JUMP JUMPDEST DUP3 DUP2 DUP4 MCOPY PUSH0 DUP4 DUP4 ADD MSTORE POP POP POP JUMP JUMPDEST PUSH0 PUSH2 0x1E0 PUSH2 0x1DB DUP5 PUSH2 0x190 JUMP JUMPDEST PUSH2 0x176 JUMP JUMPDEST SWAP1 POP DUP3 DUP2 MSTORE PUSH1 0x20 DUP2 ADD DUP5 DUP5 DUP5 ADD GT ISZERO PUSH2 0x1FC JUMPI PUSH2 0x1FB PUSH2 0x104 JUMP JUMPDEST JUMPDEST PUSH2 0x207 DUP5 DUP3 DUP6 PUSH2 0x1C0 JUMP JUMPDEST POP SWAP4 SWAP3 POP POP POP JUMP JUMPDEST PUSH0 DUP3 PUSH1 0x1F DUP4 ADD SLT PUSH2 0x223 JUMPI PUSH2 0x222 PUSH2 0x100 JUMP JUMPDEST JUMPDEST DUP2 MLOAD PUSH2 0x233 DUP5 DUP3 PUSH1 0x20 DUP7 ADD PUSH2 0x1CE JUMP JUMPDEST SWAP2 POP POP SWAP3 SWAP2 POP POP JUMP JUMPDEST PUSH0 PUSH1 0xFF DUP3 AND SWAP1 POP SWAP2 SWAP1 POP JUMP JUMPDEST PUSH2 0x251 DUP2 PUSH2 0x23C JUMP JUMPDEST DUP2 EQ PUSH2 0x25B JUMPI PUSH0 DUP1 REVERT JUMPDEST POP JUMP JUMPDEST PUSH0 DUP2 MLOAD SWAP1 POP PUSH2 0x26C DUP2 PUSH2 0x248 JUMP JUMPDEST SWAP3 SWAP2 POP POP JUMP JUMPDEST PUSH0 DUP1 PUSH0 DUP1 PUSH1 0x80 DUP6 DUP8 SUB SLT ISZERO PUSH2 0x28A JUMPI PUSH2 0x289 PUSH2 0xC5 JUMP JUMPDEST JUMPDEST PUSH0 PUSH2 0x297 DUP8 DUP3 DUP9 ADD PUSH2 0xEC JUMP JUMPDEST SWAP5 POP POP PUSH1 0x20 DUP6 ADD MLOAD PUSH8 0xFFFFFFFFFFFFFFFF DUP2 GT ISZERO PUSH2 0x2B8 JUMPI PUSH2 0x2B7 PUSH2 0xC9 JUMP JUMPDEST JUMPDEST PUSH2 0x2C4 DUP8 DUP3 DUP9 ADD PUSH2 0x20F JUMP JUMPDEST SWAP4 POP POP PUSH1 0x40 PUSH2 0x2D5 DUP8 DUP3 DUP9 ADD PUSH2 0x25E JUMP JUMPDEST SWAP3 POP POP PUSH1 0x60 DUP6 ADD MLOAD PUSH8 0xFFFFFFFFFFFFFFFF DUP2 GT ISZERO PUSH2 0x2F6 JUMPI PUSH2 0x2F5 PUSH2 0xC9 JUMP JUMPDEST JUMPDEST PUSH2 0x302 DUP8 DUP3 DUP9 ADD PUSH2 0x20F JUMP JUMPDEST SWAP2 POP POP SWAP3 SWAP6 SWAP2 SWAP5 POP SWAP3 POP JUMP JUMPDEST PUSH0 DUP2 MLOAD SWAP1 POP SWAP2 SWAP1 POP JUMP JUMPDEST PUSH32 0x4E487B7100000000000000000000000000000000000000000000000000000000 PUSH0 MSTORE PUSH1 0x22 PUSH1 0x4 MSTORE PUSH1 0x24 PUSH0 REVERT JUMPDEST PUSH0 PUSH1 0x2 DUP3 DIV SWAP1 POP PUSH1 0x1 DUP3 AND DUP1 PUSH2 0x35C JUMPI PUSH1 0x7F DUP3 AND SWAP2 POP JUMPDEST PUSH1 0x20 DUP3 LT DUP2 SUB PUSH2 0x36F JUMPI PUSH2 0x36E PUSH2 0x318 JUMP JUMPDEST JUMPDEST POP SWAP2 SWAP1 POP JUMP JUMPDEST PUSH0 DUP2 SWAP1 POP DUP2 PUSH0 MSTORE PUSH1 0x20 PUSH0 KECCAK256 SWAP1 POP SWAP2 SWAP1 POP JUMP JUMPDEST PUSH0 PUSH1 0x20 PUSH1 0x1F DUP4 ADD DIV SWAP1 POP SWAP2 SWAP1 POP JUMP JUMPDEST PUSH0 DUP3 DUP3 SHL SWAP1 POP SWAP3 SWAP2 POP POP JUMP JUMPDEST PUSH0 PUSH1 0x8 DUP4 MUL PUSH2 0x3D1 PUSH32 0xFFFFFFFFFFFFFFFFFFFFFFFFFFFFFFFFFFFFFFFFFFFFFFFFFFFFFFFFFFFFFFFF DUP3 PUSH2 0x396 JUMP JUMPDEST PUSH2 0x3DB DUP7 DUP4 PUSH2 0x396 JUMP JUMPDEST SWAP6 POP DUP1 NOT DUP5 AND SWAP4 POP DUP1 DUP7 AND DUP5 OR SWAP3 POP POP POP SWAP4 SWAP3 POP POP POP JUMP JUMPDEST PUSH0 DUP2 SWAP1 POP SWAP2 SWAP1 POP JUMP JUMPDEST PUSH0 PUSH2 0x416 PUSH2 0x411 PUSH2 0x40C DUP5 PUSH2 0xCD JUMP JUMPDEST PUSH2 0x3F3 JUMP JUMPDEST PUSH2 0xCD JUMP JUMPDEST SWAP1 POP SWAP2 SWAP1 POP JUMP JUMPDEST PUSH0 DUP2 SWAP1 POP SWAP2 SWAP1 POP JUMP JUMPDEST PUSH2 0x42F DUP4 PUSH2 0x3FC JUMP JUMPDEST PUSH2 0x443 PUSH2 0x43B DUP3 PUSH2 0x41D JUMP JUMPDEST DUP5 DUP5 SLOAD PUSH2 0x3A2 JUMP JUMPDEST DUP3 SSTORE POP POP POP POP JUMP JUMPDEST PUSH0 SWAP1 JUMP JUMPDEST PUSH2 0x457 PUSH2 0x44B JUMP JUMPDEST PUSH2 0x462 DUP2 DUP5 DUP5 PUSH2 0x426 JUMP JUMPDEST POP POP POP JUMP JUMPDEST JUMPDEST DUP2 DUP2 LT ISZERO PUSH2 0x485 JUMPI PUSH2 0x47A PUSH0 DUP3 PUSH2 0x44F JUMP JUMPDEST PUSH1 0x1 DUP2 ADD SWAP1 POP PUSH2 0x468 JUMP JUMPDEST POP POP JUMP JUMPDEST PUSH1 0x1F DUP3 GT ISZERO PUSH2 0x4CA JUMPI PUSH2 0x49B DUP2 PUSH2 0x375 JUMP JUMPDEST PUSH2 0x4A4 DUP5 PUSH2 0x387 JUMP JUMPDEST DUP2 ADD PUSH1 0x20 DUP6 LT ISZERO PUSH2 0x4B3 JUMPI DUP2 SWAP1 POP JUMPDEST PUSH2 0x4C7 PUSH2 0x4BF DUP6 PUSH2 0x387 JUMP JUMPDEST DUP4 ADD DUP3 PUSH2 0x467 JUMP JUMPDEST POP POP JUMPDEST POP POP POP JUMP JUMPDEST PUSH0 DUP3 DUP3 SHR SWAP1 POP SWAP3 SWAP2 POP POP JUMP JUMPDEST PUSH0 PUSH2 0x4EA PUSH0 NOT DUP5 PUSH1 0x8 MUL PUSH2 0x4CF JUMP JUMPDEST NOT DUP1 DUP4 AND SWAP2 POP POP SWAP3 SWAP2 POP POP JUMP JUMPDEST PUSH0 PUSH2 0x502 DUP4 DUP4 PUSH2 0x4DB JUMP JUMPDEST SWAP2 POP DUP3 PUSH1 0x2 MUL DUP3 OR SWAP1 POP SWAP3 SWAP2 POP POP JUMP JUMPDEST PUSH2 0x51B DUP3 PUSH2 0x30E JUMP JUMPDEST PUSH8 0xFFFFFFFFFFFFFFFF DUP2 GT ISZERO PUSH2 0x534 JUMPI PUSH2 0x533 PUSH2 0x118 JUMP JUMPDEST JUMPDEST PUSH2 0x53E DUP3 SLOAD PUSH2 0x345 JUMP JUMPDEST PUSH2 0x549 DUP3 DUP3 DUP6 PUSH2 0x489 JUMP JUMPDEST PUSH0 PUSH1 0x20 SWAP1 POP PUSH1 0x1F DUP4 GT PUSH1 0x1 DUP2 EQ PUSH2 0x57A JUMPI PUSH0 DUP5 ISZERO PUSH2 0x568 JUMPI DUP3 DUP8 ADD MLOAD SWAP1 POP JUMPDEST PUSH2 0x572 DUP6 DUP3 PUSH2 0x4F7 JUMP JUMPDEST DUP7 SSTORE POP PUSH2 0x5D9 JUMP JUMPDEST PUSH1 0x1F NOT DUP5 AND PUSH2 0x588 DUP7 PUSH2 0x375 JUMP JUMPDEST PUSH0 JUMPDEST DUP3 DUP2 LT ISZERO PUSH2 0x5AF JUMPI DUP5 DUP10 ADD MLOAD DUP3 SSTORE PUSH1 0x1 DUP3 ADD SWAP2 POP PUSH1 0x20 DUP6 ADD SWAP5 POP PUSH1 0x20 DUP2 ADD SWAP1 POP PUSH2 0x58A JUMP JUMPDEST DUP7 DUP4 LT ISZERO PUSH2 0x5CC JUMPI DUP5 DUP10 ADD MLOAD PUSH2 0x5C8 PUSH1 0x1F DUP10 AND DUP3 PUSH2 0x4DB JUMP JUMPDEST DUP4 SSTORE POP JUMPDEST PUSH1 0x1 PUSH1 0x2 DUP9 MUL ADD DUP9 SSTORE POP POP POP JUMPDEST POP POP POP POP POP POP JUMP JUMPDEST PUSH2 0xF06 DUP1 PUSH2 0x5EE PUSH0 CODECOPY PUSH0 RETURN INVALID PUSH1 0x80 PUSH1 0x40 MSTORE CALLVALUE DUP1 ISZERO PUSH2 0xF JUMPI PUSH0 DUP1 REVERT JUMPDEST POP PUSH1 0x4 CALLDATASIZE LT PUSH2 0xB2 JUMPI PUSH0 CALLDATALOAD PUSH1 0xE0 SHR DUP1 PUSH4 0x5C658165 GT PUSH2 0x6F JUMPI DUP1 PUSH4 0x5C658165 EQ PUSH2 0x1A0 JUMPI DUP1 PUSH4 0x70A08231 EQ PUSH2 0x1D0 JUMPI DUP1 PUSH4 0x793312ED EQ PUSH2 0x200 JUMPI DUP1 PUSH4 0x95D89B41 EQ PUSH2 0x21C JUMPI DUP1 PUSH4 0xA9059CBB EQ PUSH2 0x23A JUMPI DUP1 PUSH4 0xDD62ED3E EQ PUSH2 0x26A JUMPI PUSH2 0xB2 JUMP JUMPDEST DUP1 PUSH4 0x6FDDE03 EQ PUSH2 0xB6 JUMPI DUP1 PUSH4 0x95EA7B3 EQ PUSH2 0xD4 JUMPI DUP1 PUSH4 0x18160DDD EQ PUSH2 0x104 JUMPI DUP1 PUSH4 0x23B872DD EQ PUSH2 0x122 JUMPI DUP1 PUSH4 0x27E235E3 EQ PUSH2 0x152 JUMPI DUP1 PUSH4 0x313CE567 EQ PUSH2 0x182 JUMPI JUMPDEST PUSH0 DUP1 REVERT JUMPDEST PUSH2 0xBE PUSH2 0x29A JUMP JUMPDEST PUSH1 0x40 MLOAD PUSH2 0xCB SWAP2 SWAP1 PUSH2 0xA8D JUMP JUMPDEST PUSH1 0x40 MLOAD DUP1 SWAP2 SUB SWAP1 RETURN JUMPDEST PUSH2 0xEE PUSH1 0x4 DUP1 CALLDATASIZE SUB DUP2 ADD SWAP1 PUSH2 0xE9 SWAP2 SWAP1 PUSH2 0xB3E JUMP JUMPDEST PUSH2 0x326 JUMP JUMPDEST PUSH1 0x40 MLOAD PUSH2 0xFB SWAP2 SWAP1 PUSH2 0xB96 JUMP JUMPDEST PUSH1 0x40 MLOAD DUP1 SWAP2 SUB SWAP1 RETURN JUMPDEST PUSH2 0x10C PUSH2 0x413 JUMP JUMPDEST PUSH1 0x40 MLOAD PUSH2 0x119 SWAP2 SWAP1 PUSH2 0xBBE JUMP JUMPDEST PUSH1 0x40 MLOAD DUP1 SWAP2 SUB SWAP1 RETURN JUMPDEST PUSH2 0x13C PUSH1 0x4 DUP1 CALLDATASIZE SUB DUP2 ADD SWAP1 PUSH2 0x137 SWAP2 SWAP1 PUSH2 0xBD7 JUMP JUMPDEST PUSH2 0x419 JUMP JUMPDEST PUSH1 0x40 MLOAD PUSH2 0x149 SWAP2 SWAP1 PUSH2 0xB96 JUMP JUMPDEST PUSH1 0x40 MLOAD DUP1 SWAP2 SUB SWAP1 RETURN JUMPDEST PUSH2 0x16C PUSH1 0x4 DUP1 CALLDATASIZE SUB DUP2 ADD SWAP1 PUSH2 0x167 SWAP2 SWAP1 PUSH2 0xC27 JUMP JUMPDEST PUSH2 0x6ED JUMP JUMPDEST PUSH1 0x40 MLOAD PUSH2 0x179 SWAP2 SWAP1 PUSH2 0xBBE JUMP JUMPDEST PUSH1 0x40 MLOAD DUP1 SWAP2 SUB SWAP1 RETURN JUMPDEST PUSH2 0x18A PUSH2 0x701 JUMP JUMPDEST PUSH1 0x40 MLOAD PUSH2 0x197 SWAP2 SWAP1 PUSH2 0xC6D JUMP JUMPDEST PUSH1 0x40 MLOAD DUP1 SWAP2 SUB SWAP1 RETURN JUMPDEST PUSH2 0x1BA PUSH1 0x4 DUP1 CALLDATASIZE SUB DUP2 ADD SWAP1 PUSH2 0x1B5 SWAP2 SWAP1 PUSH2 0xC86 JUMP JUMPDEST PUSH2 0x713 JUMP JUMPDEST PUSH1 0x40 MLOAD PUSH2 0x1C7 SWAP2 SWAP1 PUSH2 0xBBE JUMP JUMPDEST PUSH1 0x40 MLOAD DUP1 SWAP2 SUB SWAP1 RETURN JUMPDEST PUSH2 0x1EA PUSH1 0x4 DUP1 CALLDATASIZE SUB DUP2 ADD SWAP1 PUSH2 0x1E5 SWAP2 SWAP1 PUSH2 0xC27 JUMP JUMPDEST PUSH2 0x733 JUMP JUMPDEST PUSH1 0x40 MLOAD PUSH2 0x1F7 SWAP2 SWAP1 PUSH2 0xBBE JUMP JUMPDEST PUSH1 0x40 MLOAD DUP1 SWAP2 SUB SWAP1 RETURN JUMPDEST PUSH2 0x21A PUSH1 0x4 DUP1 CALLDATASIZE SUB DUP2 ADD SWAP1 PUSH2 0x215 SWAP2 SWAP1 PUSH2 0xB3E JUMP JUMPDEST PUSH2 0x778 JUMP JUMPDEST STOP JUMPDEST PUSH2 0x224 PUSH2 0x77C JUMP JUMPDEST PUSH1 0x40 MLOAD PUSH2 0x231 SWAP2 SWAP1 PUSH2 0xA8D JUMP JUMPDEST PUSH1 0x40 MLOAD DUP1 SWAP2 SUB SWAP1 RETURN JUMPDEST PUSH2 0x254 PUSH1 0x4 DUP1 CALLDATASIZE SUB DUP2 ADD SWAP1 PUSH2 0x24F SWAP2 SWAP1 PUSH2 0xB3E JUMP JUMPDEST PUSH2 0x808 JUMP JUMPDEST PUSH1 0x40 MLOAD PUSH2 0x261 SWAP2 SWAP1 PUSH2 0xB96 JUMP JUMPDEST PUSH1 0x40 MLOAD DUP1 SWAP2 SUB SWAP1 RETURN JUMPDEST PUSH2 0x284 PUSH1 0x4 DUP1 CALLDATASIZE SUB DUP2 ADD SWAP1 PUSH2 0x27F SWAP2 SWAP1 PUSH2 0xC86 JUMP JUMPDEST PUSH2 0x99B JUMP JUMPDEST PUSH1 0x40 MLOAD PUSH2 0x291 SWAP2 SWAP1 PUSH2 0xBBE JUMP JUMPDEST PUSH1 0x40 MLOAD DUP1 SWAP2 SUB SWAP1 RETURN JUMPDEST PUSH1 0x3 DUP1 SLOAD PUSH2 0x2A7 SWAP1 PUSH2 0xCF1 JUMP JUMPDEST DUP1 PUSH1 0x1F ADD PUSH1 0x20 DUP1 SWAP2 DIV MUL PUSH1 0x20 ADD PUSH1 0x40 MLOAD SWAP1 DUP2 ADD PUSH1 0x40 MSTORE DUP1 SWAP3 SWAP2 SWAP1 DUP2 DUP2 MSTORE PUSH1 0x20 ADD DUP3 DUP1 SLOAD PUSH2 0x2D3 SWAP1 PUSH2 0xCF1 JUMP JUMPDEST DUP1 ISZERO PUSH2 0x31E JUMPI DUP1 PUSH1 0x1F LT PUSH2 0x2F5 JUMPI PUSH2 0x100 DUP1 DUP4 SLOAD DIV MUL DUP4 MSTORE SWAP2 PUSH1 0x20 ADD SWAP2 PUSH2 0x31E JUMP JUMPDEST DUP3 ADD SWAP2 SWAP1 PUSH0 MSTORE PUSH1 0x20 PUSH0 KECCAK256 SWAP1 JUMPDEST DUP2 SLOAD DUP2 MSTORE SWAP1 PUSH1 0x1 ADD SWAP1 PUSH1 0x20 ADD DUP1 DUP4 GT PUSH2 0x301 JUMPI DUP3 SWAP1 SUB PUSH1 0x1F AND DUP3 ADD SWAP2 JUMPDEST POP POP POP POP POP DUP2 JUMP JUMPDEST PUSH0 DUP2 PUSH1 0x1 PUSH0 CALLER PUSH20 0xFFFFFFFFFFFFFFFFFFFFFFFFFFFFFFFFFFFFFFFF AND PUSH20 0xFFFFFFFFFFFFFFFFFFFFFFFFFFFFFFFFFFFFFFFF AND DUP2 MSTORE PUSH1 0x20 ADD SWAP1 DUP2 MSTORE PUSH1 0x20 ADD PUSH0 KECCAK256 PUSH0 DUP6 PUSH20 0xFFFFFFFFFFFFFFFFFFFFFFFFFFFFFFFFFFFFFFFF AND PUSH20 0xFFFFFFFFFFFFFFFFFFFFFFFFFFFFFFFFFFFFFFFF AND DUP2 MSTORE PUSH1 0x20 ADD SWAP1 DUP2 MSTORE PUSH1 0x20 ADD PUSH0 KECCAK256 DUP2 SWAP1 SSTORE POP DUP3 PUSH20 0xFFFFFFFFFFFFFFFFFFFFFFFFFFFFFFFFFFFFFFFF AND CALLER PUSH20 0xFFFFFFFFFFFFFFFFFFFFFFFFFFFFFFFFFFFFFFFF AND PUSH32 0x8C5BE1E5EBEC7D5BD14F71427D1E84F3DD0314C0F7B2291E5B200AC8C7C3B925 DUP5 PUSH1 0x40 MLOAD PUSH2 0x401 SWAP2 SWAP1 PUSH2 0xBBE JUMP JUMPDEST PUSH1 0x40 MLOAD DUP1 SWAP2 SUB SWAP1 LOG3 PUSH1 0x1 SWAP1 POP SWAP3 SWAP2 POP POP JUMP JUMPDEST PUSH1 0x2 SLOAD DUP2 JUMP JUMPDEST PUSH0 DUP1 PUSH1 0x1 PUSH0 DUP7 PUSH20 0xFFFFFFFFFFFFFFFFFFFFFFFFFFFFFFFFFFFFFFFF AND PUSH20 0xFFFFFFFFFFFFFFFFFFFFFFFFFFFFFFFFFFFFFFFF AND DUP2 MSTORE PUSH1 0x20 ADD SWAP1 DUP2 MSTORE PUSH1 0x20 ADD PUSH0 KECCAK256 PUSH0 CALLER PUSH20 0xFFFFFFFFFFFFFFFFFFFFFFFFFFFFFFFFFFFFFFFF AND PUSH20 0xFFFFFFFFFFFFFFFFFFFFFFFFFFFFFFFFFFFFFFFF AND DUP2 MSTORE PUSH1 0x20 ADD SWAP1 DUP2 MSTORE PUSH1 0x20 ADD PUSH0 KECCAK256 SLOAD SWAP1 POP DUP3 PUSH0 DUP1 DUP8 PUSH20 0xFFFFFFFFFFFFFFFFFFFFFFFFFFFFFFFFFFFFFFFF AND PUSH20 0xFFFFFFFFFFFFFFFFFFFFFFFFFFFFFFFFFFFFFFFF AND DUP2 MSTORE PUSH1 0x20 ADD SWAP1 DUP2 MSTORE PUSH1 0x20 ADD PUSH0 KECCAK256 SLOAD LT ISZERO DUP1 ISZERO PUSH2 0x4E2 JUMPI POP DUP3 DUP2 LT ISZERO JUMPDEST PUSH2 0x521 JUMPI PUSH1 0x40 MLOAD PUSH32 0x8C379A000000000000000000000000000000000000000000000000000000000 DUP2 MSTORE PUSH1 0x4 ADD PUSH2 0x518 SWAP1 PUSH2 0xD91 JUMP JUMPDEST PUSH1 0x40 MLOAD DUP1 SWAP2 SUB SWAP1 REVERT JUMPDEST DUP3 PUSH0 DUP1 DUP7 PUSH20 0xFFFFFFFFFFFFFFFFFFFFFFFFFFFFFFFFFFFFFFFF AND PUSH20 0xFFFFFFFFFFFFFFFFFFFFFFFFFFFFFFFFFFFFFFFF AND DUP2 MSTORE PUSH1 0x20 ADD SWAP1 DUP2 MSTORE PUSH1 0x20 ADD PUSH0 KECCAK256 PUSH0 DUP3 DUP3 SLOAD PUSH2 0x56C SWAP2 SWAP1 PUSH2 0xDDC JUMP JUMPDEST SWAP3 POP POP DUP2 SWAP1 SSTORE POP DUP3 PUSH0 DUP1 DUP8 PUSH20 0xFFFFFFFFFFFFFFFFFFFFFFFFFFFFFFFFFFFFFFFF AND PUSH20 0xFFFFFFFFFFFFFFFFFFFFFFFFFFFFFFFFFFFFFFFF AND DUP2 MSTORE PUSH1 0x20 ADD SWAP1 DUP2 MSTORE PUSH1 0x20 ADD PUSH0 KECCAK256 PUSH0 DUP3 DUP3 SLOAD PUSH2 0x5BE SWAP2 SWAP1 PUSH2 0xE0F JUMP JUMPDEST SWAP3 POP POP DUP2 SWAP1 SSTORE POP PUSH32 0xFFFFFFFFFFFFFFFFFFFFFFFFFFFFFFFFFFFFFFFFFFFFFFFFFFFFFFFFFFFFFFFF DUP2 LT ISZERO PUSH2 0x67C JUMPI DUP3 PUSH1 0x1 PUSH0 DUP8 PUSH20 0xFFFFFFFFFFFFFFFFFFFFFFFFFFFFFFFFFFFFFFFF AND PUSH20 0xFFFFFFFFFFFFFFFFFFFFFFFFFFFFFFFFFFFFFFFF AND DUP2 MSTORE PUSH1 0x20 ADD SWAP1 DUP2 MSTORE PUSH1 0x20 ADD PUSH0 KECCAK256 PUSH0 CALLER PUSH20 0xFFFFFFFFFFFFFFFFFFFFFFFFFFFFFFFFFFFFFFFF AND PUSH20 0xFFFFFFFFFFFFFFFFFFFFFFFFFFFFFFFFFFFFFFFF AND DUP2 MSTORE PUSH1 0x20 ADD SWAP1 DUP2 MSTORE PUSH1 0x20 ADD PUSH0 KECCAK256 PUSH0 DUP3 DUP3 SLOAD PUSH2 0x674 SWAP2 SWAP1 PUSH2 0xE0F JUMP JUMPDEST SWAP3 POP POP DUP2 SWAP1 SSTORE POP JUMPDEST DUP4 PUSH20 0xFFFFFFFFFFFFFFFFFFFFFFFFFFFFFFFFFFFFFFFF AND DUP6 PUSH20 0xFFFFFFFFFFFFFFFFFFFFFFFFFFFFFFFFFFFFFFFF AND PUSH32 0xDDF252AD1BE2C89B69C2B068FC378DAA952BA7F163C4A11628F55A4DF523B3EF DUP6 PUSH1 0x40 MLOAD PUSH2 0x6D9 SWAP2 SWAP1 PUSH2 0xBBE JUMP JUMPDEST PUSH1 0x40 MLOAD DUP1 SWAP2 SUB SWAP1 LOG3 PUSH1 0x1 SWAP2 POP POP SWAP4 SWAP3 POP POP POP JUMP JUMPDEST PUSH0 PUSH1 0x20 MSTORE DUP1 PUSH0 MSTORE PUSH1 0x40 PUSH0 KECCAK256 PUSH0 SWAP2 POP SWAP1 POP SLOAD DUP2 JUMP JUMPDEST PUSH1 0x4 PUSH0 SWAP1 SLOAD SWAP1 PUSH2 0x100 EXP SWAP1 DIV PUSH1 0xFF AND DUP2 JUMP JUMPDEST PUSH1 0x1 PUSH1 0x20 MSTORE DUP2 PUSH0 MSTORE PUSH1 0x40 PUSH0 KECCAK256 PUSH1 0x20 MSTORE DUP1 PUSH0 MSTORE PUSH1 0x40 PUSH0 KECCAK256 PUSH0 SWAP2 POP SWAP2 POP POP SLOAD DUP2 JUMP JUMPDEST PUSH0 DUP1 PUSH0 DUP4 PUSH20 0xFFFFFFFFFFFFFFFFFFFFFFFFFFFFFFFFFFFFFFFF AND PUSH20 0xFFFFFFFFFFFFFFFFFFFFFFFFFFFFFFFFFFFFFFFF AND DUP2 MSTORE PUSH1 0x20 ADD SWAP1 DUP2 MSTORE PUSH1 0x20 ADD PUSH0 KECCAK256 SLOAD SWAP1 POP SWAP2 SWAP1 POP JUMP JUMPDEST POP POP JUMP JUMPDEST PUSH1 0x5 DUP1 SLOAD PUSH2 0x789 SWAP1 PUSH2 0xCF1 JUMP JUMPDEST DUP1 PUSH1 0x1F ADD PUSH1 0x20 DUP1 SWAP2 DIV MUL PUSH1 0x20 ADD PUSH1 0x40 MLOAD SWAP1 DUP2 ADD PUSH1 0x40 MSTORE DUP1 SWAP3 SWAP2 SWAP1 DUP2 DUP2 MSTORE PUSH1 0x20 ADD DUP3 DUP1 SLOAD PUSH2 0x7B5 SWAP1 PUSH2 0xCF1 JUMP JUMPDEST DUP1 ISZERO PUSH2 0x800 JUMPI DUP1 PUSH1 0x1F LT PUSH2 0x7D7 JUMPI PUSH2 0x100 DUP1 DUP4 SLOAD DIV MUL DUP4 MSTORE SWAP2 PUSH1 0x20 ADD SWAP2 PUSH2 0x800 JUMP JUMPDEST DUP3 ADD SWAP2 SWAP1 PUSH0 MSTORE PUSH1 0x20 PUSH0 KECCAK256 SWAP1 JUMPDEST DUP2 SLOAD DUP2 MSTORE SWAP1 PUSH1 0x1 ADD SWAP1 PUSH1 0x20 ADD DUP1 DUP4 GT PUSH2 0x7E3 JUMPI DUP3 SWAP1 SUB PUSH1 0x1F AND DUP3 ADD SWAP2 JUMPDEST POP POP POP POP POP DUP2 JUMP JUMPDEST PUSH0 DUP2 PUSH0 DUP1 CALLER PUSH20 0xFFFFFFFFFFFFFFFFFFFFFFFFFFFFFFFFFFFFFFFF AND PUSH20 0xFFFFFFFFFFFFFFFFFFFFFFFFFFFFFFFFFFFFFFFF AND DUP2 MSTORE PUSH1 0x20 ADD SWAP1 DUP2 MSTORE PUSH1 0x20 ADD PUSH0 KECCAK256 SLOAD LT ISZERO PUSH2 0x888 JUMPI PUSH1 0x40 MLOAD PUSH32 0x8C379A000000000000000000000000000000000000000000000000000000000 DUP2 MSTORE PUSH1 0x4 ADD PUSH2 0x87F SWAP1 PUSH2 0xEB2 JUMP JUMPDEST PUSH1 0x40 MLOAD DUP1 SWAP2 SUB SWAP1 REVERT JUMPDEST DUP2 PUSH0 DUP1 CALLER PUSH20 0xFFFFFFFFFFFFFFFFFFFFFFFFFFFFFFFFFFFFFFFF AND PUSH20 0xFFFFFFFFFFFFFFFFFFFFFFFFFFFFFFFFFFFFFFFF AND DUP2 MSTORE PUSH1 0x20 ADD SWAP1 DUP2 MSTORE PUSH1 0x20 ADD PUSH0 KECCAK256 PUSH0 DUP3 DUP3 SLOAD PUSH2 0x8D3 SWAP2 SWAP1 PUSH2 0xE0F JUMP JUMPDEST SWAP3 POP POP DUP2 SWAP1 SSTORE POP DUP2 PUSH0 DUP1 DUP6 PUSH20 0xFFFFFFFFFFFFFFFFFFFFFFFFFFFFFFFFFFFFFFFF AND PUSH20 0xFFFFFFFFFFFFFFFFFFFFFFFFFFFFFFFFFFFFFFFF AND DUP2 MSTORE PUSH1 0x20 ADD SWAP1 DUP2 MSTORE PUSH1 0x20 ADD PUSH0 KECCAK256 PUSH0 DUP3 DUP3 SLOAD PUSH2 0x925 SWAP2 SWAP1 PUSH2 0xDDC JUMP JUMPDEST SWAP3 POP POP DUP2 SWAP1 SSTORE POP DUP3 PUSH20 0xFFFFFFFFFFFFFFFFFFFFFFFFFFFFFFFFFFFFFFFF AND CALLER PUSH20 0xFFFFFFFFFFFFFFFFFFFFFFFFFFFFFFFFFFFFFFFF AND PUSH32 0xDDF252AD1BE2C89B69C2B068FC378DAA952BA7F163C4A11628F55A4DF523B3EF DUP5 PUSH1 0x40 MLOAD PUSH2 0x989 SWAP2 SWAP1 PUSH2 0xBBE JUMP JUMPDEST PUSH1 0x40 MLOAD DUP1 SWAP2 SUB SWAP1 LOG3 PUSH1 0x1 SWAP1 POP SWAP3 SWAP2 POP POP JUMP JUMPDEST PUSH0 PUSH1 0x1 PUSH0 DUP5 PUSH20 0xFFFFFFFFFFFFFFFFFFFFFFFFFFFFFFFFFFFFFFFF AND PUSH20 0xFFFFFFFFFFFFFFFFFFFFFFFFFFFFFFFFFFFFFFFF AND DUP2 MSTORE PUSH1 0x20 ADD SWAP1 DUP2 MSTORE PUSH1 0x20 ADD PUSH0 KECCAK256 PUSH0 DUP4 PUSH20 0xFFFFFFFFFFFFFFFFFFFFFFFFFFFFFFFFFFFFFFFF AND PUSH20 0xFFFFFFFFFFFFFFFFFFFFFFFFFFFFFFFFFFFFFFFF AND DUP2 MSTORE PUSH1 0x20 ADD SWAP1 DUP2 MSTORE PUSH1 0x20 ADD PUSH0 KECCAK256 SLOAD SWAP1 POP SWAP3 SWAP2 POP POP JUMP JUMPDEST PUSH0 DUP2 MLOAD SWAP1 POP SWAP2 SWAP1 POP JUMP JUMPDEST PUSH0 DUP3 DUP3 MSTORE PUSH1 0x20 DUP3 ADD SWAP1 POP SWAP3 SWAP2 POP POP JUMP JUMPDEST DUP3 DUP2 DUP4 MCOPY PUSH0 DUP4 DUP4 ADD MSTORE POP POP POP JUMP JUMPDEST PUSH0 PUSH1 0x1F NOT PUSH1 0x1F DUP4 ADD AND SWAP1 POP SWAP2 SWAP1 POP JUMP JUMPDEST PUSH0 PUSH2 0xA5F DUP3 PUSH2 0xA1D JUMP JUMPDEST PUSH2 0xA69 DUP2 DUP6 PUSH2 0xA27 JUMP JUMPDEST SWAP4 POP PUSH2 0xA79 DUP2 DUP6 PUSH1 0x20 DUP7 ADD PUSH2 0xA37 JUMP JUMPDEST PUSH2 0xA82 DUP2 PUSH2 0xA45 JUMP JUMPDEST DUP5 ADD SWAP2 POP POP SWAP3 SWAP2 POP POP JUMP JUMPDEST PUSH0 PUSH1 0x20 DUP3 ADD SWAP1 POP DUP2 DUP2 SUB PUSH0 DUP4 ADD MSTORE PUSH2 0xAA5 DUP2 DUP5 PUSH2 0xA55 JUMP JUMPDEST SWAP1 POP SWAP3 SWAP2 POP POP JUMP JUMPDEST PUSH0 DUP1 REVERT JUMPDEST PUSH0 PUSH20 0xFFFFFFFFFFFFFFFFFFFFFFFFFFFFFFFFFFFFFFFF DUP3 AND SWAP1 POP SWAP2 SWAP1 POP JUMP JUMPDEST PUSH0 PUSH2 0xADA DUP3 PUSH2 0xAB1 JUMP JUMPDEST SWAP1 POP SWAP2 SWAP1 POP JUMP JUMPDEST PUSH2 0xAEA DUP2 PUSH2 0xAD0 JUMP JUMPDEST DUP2 EQ PUSH2 0xAF4 JUMPI PUSH0 DUP1 REVERT JUMPDEST POP JUMP JUMPDEST PUSH0 DUP2 CALLDATALOAD SWAP1 POP PUSH2 0xB05 DUP2 PUSH2 0xAE1 JUMP JUMPDEST SWAP3 SWAP2 POP POP JUMP JUMPDEST PUSH0 DUP2 SWAP1 POP SWAP2 SWAP1 POP JUMP JUMPDEST PUSH2 0xB1D DUP2 PUSH2 0xB0B JUMP JUMPDEST DUP2 EQ PUSH2 0xB27 JUMPI PUSH0 DUP1 REVERT JUMPDEST POP JUMP JUMPDEST PUSH0 DUP2 CALLDATALOAD SWAP1 POP PUSH2 0xB38 DUP2 PUSH2 0xB14 JUMP JUMPDEST SWAP3 SWAP2 POP POP JUMP JUMPDEST PUSH0 DUP1 PUSH1 0x40 DUP4 DUP6 SUB SLT ISZERO PUSH2 0xB54 JUMPI PUSH2 0xB53 PUSH2 0xAAD JUMP JUMPDEST JUMPDEST PUSH0 PUSH2 0xB61 DUP6 DUP3 DUP7 ADD PUSH2 0xAF7 JUMP JUMPDEST SWAP3 POP POP PUSH1 0x20 PUSH2 0xB72 DUP6 DUP3 DUP7 ADD PUSH2 0xB2A JUMP JUMPDEST SWAP2 POP POP SWAP3 POP SWAP3 SWAP1 POP JUMP JUMPDEST PUSH0 DUP2 ISZERO ISZERO SWAP1 POP SWAP2 SWAP1 POP JUMP JUMPDEST PUSH2 0xB90 DUP2 PUSH2 0xB7C JUMP JUMPDEST DUP3 MSTORE POP POP JUMP JUMPDEST PUSH0 PUSH1 0x20 DUP3 ADD SWAP1 POP PUSH2 0xBA9 PUSH0 DUP4 ADD DUP5 PUSH2 0xB87 JUMP JUMPDEST SWAP3 SWAP2 POP POP JUMP JUMPDEST PUSH2 0xBB8 DUP2 PUSH2 0xB0B JUMP JUMPDEST DUP3 MSTORE POP POP JUMP JUMPDEST PUSH0 PUSH1 0x20 DUP3 ADD SWAP1 POP PUSH2 0xBD1 PUSH0 DUP4 ADD DUP5 PUSH2 0xBAF JUMP JUMPDEST SWAP3 SWAP2 POP POP JUMP JUMPDEST PUSH0 DUP1 PUSH0 PUSH1 0x60 DUP5 DUP7 SUB SLT ISZERO PUSH2 0xBEE JUMPI PUSH2 0xBED PUSH2 0xAAD JUMP JUMPDEST JUMPDEST PUSH0 PUSH2 0xBFB DUP7 DUP3 DUP8 ADD PUSH2 0xAF7 JUMP JUMPDEST SWAP4 POP POP PUSH1 0x20 PUSH2 0xC0C DUP7 DUP3 DUP8 ADD PUSH2 0xAF7 JUMP JUMPDEST SWAP3 POP POP PUSH1 0x40 PUSH2 0xC1D DUP7 DUP3 DUP8 ADD PUSH2 0xB2A JUMP JUMPDEST SWAP2 POP POP SWAP3 POP SWAP3 POP SWAP3 JUMP JUMPDEST PUSH0 PUSH1 0x20 DUP3 DUP5 SUB SLT ISZERO PUSH2 0xC3C JUMPI PUSH2 0xC3B PUSH2 0xAAD JUMP JUMPDEST JUMPDEST PUSH0 PUSH2 0xC49 DUP5 DUP3 DUP6 ADD PUSH2 0xAF7 JUMP JUMPDEST SWAP2 POP POP SWAP3 SWAP2 POP POP JUMP JUMPDEST PUSH0 PUSH1 0xFF DUP3 AND SWAP1 POP SWAP2 SWAP1 POP JUMP JUMPDEST PUSH2 0xC67 DUP2 PUSH2 0xC52 JUMP JUMPDEST DUP3 MSTORE POP POP JUMP JUMPDEST PUSH0 PUSH1 0x20 DUP3 ADD SWAP1 POP PUSH2 0xC80 PUSH0 DUP4 ADD DUP5 PUSH2 0xC5E JUMP JUMPDEST SWAP3 SWAP2 POP POP JUMP JUMPDEST PUSH0 DUP1 PUSH1 0x40 DUP4 DUP6 SUB SLT ISZERO PUSH2 0xC9C JUMPI PUSH2 0xC9B PUSH2 0xAAD JUMP JUMPDEST JUMPDEST PUSH0 PUSH2 0xCA9 DUP6 DUP3 DUP7 ADD PUSH2 0xAF7 JUMP JUMPDEST SWAP3 POP POP PUSH1 0x20 PUSH2 0xCBA DUP6 DUP3 DUP7 ADD PUSH2 0xAF7 JUMP JUMPDEST SWAP2 POP POP SWAP3 POP SWAP3 SWAP1 POP JUMP JUMPDEST PUSH32 0x4E487B7100000000000000000000000000000000000000000000000000000000 PUSH0 MSTORE PUSH1 0x22 PUSH1 0x4 MSTORE PUSH1 0x24 PUSH0 REVERT JUMPDEST PUSH0 PUSH1 0x2 DUP3 DIV SWAP1 POP PUSH1 0x1 DUP3 AND DUP1 PUSH2 0xD08 JUMPI PUSH1 0x7F DUP3 AND SWAP2 POP JUMPDEST PUSH1 0x20 DUP3 LT DUP2 SUB PUSH2 0xD1B JUMPI PUSH2 0xD1A PUSH2 0xCC4 JUMP JUMPDEST JUMPDEST POP SWAP2 SWAP1 POP JUMP JUMPDEST PUSH32 0x746F6B656E2062616C616E6365206F7220616C6C6F77616E6365206973206C6F PUSH0 DUP3 ADD MSTORE PUSH32 0x776572207468616E20616D6F756E742072657175657374656400000000000000 PUSH1 0x20 DUP3 ADD MSTORE POP JUMP JUMPDEST PUSH0 PUSH2 0xD7B PUSH1 0x39 DUP4 PUSH2 0xA27 JUMP JUMPDEST SWAP2 POP PUSH2 0xD86 DUP3 PUSH2 0xD21 JUMP JUMPDEST PUSH1 0x40 DUP3 ADD SWAP1 POP SWAP2 SWAP1 POP JUMP JUMPDEST PUSH0 PUSH1 0x20 DUP3 ADD SWAP1 POP DUP2 DUP2 SUB PUSH0 DUP4 ADD MSTORE PUSH2 0xDA8 DUP2 PUSH2 0xD6F JUMP JUMPDEST SWAP1 POP SWAP2 SWAP1 POP JUMP JUMPDEST PUSH32 0x4E487B7100000000000000000000000000000000000000000000000000000000 PUSH0 MSTORE PUSH1 0x11 PUSH1 0x4 MSTORE PUSH1 0x24 PUSH0 REVERT JUMPDEST PUSH0 PUSH2 0xDE6 DUP3 PUSH2 0xB0B JUMP JUMPDEST SWAP2 POP PUSH2 0xDF1 DUP4 PUSH2 0xB0B JUMP JUMPDEST SWAP3 POP DUP3 DUP3 ADD SWAP1 POP DUP1 DUP3 GT ISZERO PUSH2 0xE09 JUMPI PUSH2 0xE08 PUSH2 0xDAF JUMP JUMPDEST JUMPDEST SWAP3 SWAP2 POP POP JUMP JUMPDEST PUSH0 PUSH2 0xE19 DUP3 PUSH2 0xB0B JUMP JUMPDEST SWAP2 POP PUSH2 0xE24 DUP4 PUSH2 0xB0B JUMP JUMPDEST SWAP3 POP DUP3 DUP3 SUB SWAP1 POP DUP2 DUP2 GT ISZERO PUSH2 0xE3C JUMPI PUSH2 0xE3B PUSH2 0xDAF JUMP JUMPDEST JUMPDEST SWAP3 SWAP2 POP POP JUMP JUMPDEST PUSH32 0x746F6B656E2062616C616E6365206973206C6F776572207468616E2074686520 PUSH0 DUP3 ADD MSTORE PUSH32 0x76616C7565207265717565737465640000000000000000000000000000000000 PUSH1 0x20 DUP3 ADD MSTORE POP JUMP JUMPDEST PUSH0 PUSH2 0xE9C PUSH1 0x2F DUP4 PUSH2 0xA27 JUMP JUMPDEST SWAP2 POP PUSH2 0xEA7 DUP3 PUSH2 0xE42 JUMP JUMPDEST PUSH1 0x40 DUP3 ADD SWAP1 POP SWAP2 SWAP1 POP JUMP JUMPDEST PUSH0 PUSH1 0x20 DUP3 ADD SWAP1 POP DUP2 DUP2 SUB PUSH0 DUP4 ADD MSTORE PUSH2 0xEC9 DUP2 PUSH2 0xE90 JUMP JUMPDEST SWAP1 POP SWAP2 SWAP1 POP JUMP INVALID LOG2 PUSH5 0x6970667358 0x22 SLT KECCAK256 CALLDATALOAD 0xB3 0xDA REVERT 0xEE DUP16 CALLVALUE SLOAD XOR 0xD1 PUSH21 0x9C19273E168EFC3812CD4B841FDAB363D0C8B155E3 PUSH5 0x736F6C6343 STOP ADDMOD BYTE STOP CALLER "
		},
		"gasEstimates": {
			"creation": {
				"codeDepositCost": "769200",
				"executionCost": "infinite",
				"totalCost": "infinite"
			},
			"external": {
				"allowance(address,address)": "infinite",
				"allowed(address,address)": "infinite",
				"approve(address,uint256)": "infinite",
				"balanceOf(address)": "2851",
				"balances(address)": "2890",
				"decimals()": "2577",
				"mint_for_test(address,uint256)": "664",
				"name()": "infinite",
				"symbol()": "infinite",
				"totalSupply()": "2470",
				"transfer(address,uint256)": "infinite",
				"transferFrom(address,address,uint256)": "infinite"
			}
		},
		"methodIdentifiers": {
			"allowance(address,address)": "dd62ed3e",
			"allowed(address,address)": "5c658165",
			"approve(address,uint256)": "095ea7b3",
			"balanceOf(address)": "70a08231",
			"balances(address)": "27e235e3",
			"decimals()": "313ce567",
			"mint_for_test(address,uint256)": "793312ed",
			"name()": "06fdde03",
			"symbol()": "95d89b41",
			"totalSupply()": "18160ddd",
			"transfer(address,uint256)": "a9059cbb",
			"transferFrom(address,address,uint256)": "23b872dd"
		}
	},
	"abi": [
		{
			"inputs": [
				{
					"internalType": "uint256",
					"name": "_initialAmount",
					"type": "uint256"
				},
				{
					"internalType": "string",
					"name": "_tokenName",
					"type": "string"
				},
				{
					"internalType": "uint8",
					"name": "_decimalUnits",
					"type": "uint8"
				},
				{
					"internalType": "string",
					"name": "_tokenSymbol",
					"type": "string"
				}
			],
			"stateMutability": "nonpayable",
			"type": "constructor"
		},
		{
			"anonymous": false,
			"inputs": [
				{
					"indexed": true,
					"internalType": "address",
					"name": "_owner",
					"type": "address"
				},
				{
					"indexed": true,
					"internalType": "address",
					"name": "_spender",
					"type": "address"
				},
				{
					"indexed": false,
					"internalType": "uint256",
					"name": "_value",
					"type": "uint256"
				}
			],
			"name": "Approval",
			"type": "event"
		},
		{
			"anonymous": false,
			"inputs": [
				{
					"indexed": true,
					"internalType": "address",
					"name": "_from",
					"type": "address"
				},
				{
					"indexed": true,
					"internalType": "address",
					"name": "_to",
					"type": "address"
				},
				{
					"indexed": false,
					"internalType": "uint256",
					"name": "_value",
					"type": "uint256"
				}
			],
			"name": "Transfer",
			"type": "event"
		},
		{
			"inputs": [
				{
					"internalType": "address",
					"name": "_owner",
					"type": "address"
				},
				{
					"internalType": "address",
					"name": "_spender",
					"type": "address"
				}
			],
			"name": "allowance",
			"outputs": [
				{
					"internalType": "uint256",
					"name": "remaining",
					"type": "uint256"
				}
			],
			"stateMutability": "view",
			"type": "function"
		},
		{
			"inputs": [
				{
					"internalType": "address",
					"name": "",
					"type": "address"
				},
				{
					"internalType": "address",
					"name": "",
					"type": "address"
				}
			],
			"name": "allowed",
			"outputs": [
				{
					"internalType": "uint256",
					"name": "",
					"type": "uint256"
				}
			],
			"stateMutability": "view",
			"type": "function"
		},
		{
			"inputs": [
				{
					"internalType": "address",
					"name": "_spender",
					"type": "address"
				},
				{
					"internalType": "uint256",
					"name": "_value",
					"type": "uint256"
				}
			],
			"name": "approve",
			"outputs": [
				{
					"internalType": "bool",
					"name": "success",
					"type": "bool"
				}
			],
			"stateMutability": "nonpayable",
			"type": "function"
		},
		{
			"inputs": [
				{
					"internalType": "address",
					"name": "_owner",
					"type": "address"
				}
			],
			"name": "balanceOf",
			"outputs": [
				{
					"internalType": "uint256",
					"name": "balance",
					"type": "uint256"
				}
			],
			"stateMutability": "view",
			"type": "function"
		},
		{
			"inputs": [
				{
					"internalType": "address",
					"name": "",
					"type": "address"
				}
			],
			"name": "balances",
			"outputs": [
				{
					"internalType": "uint256",
					"name": "",
					"type": "uint256"
				}
			],
			"stateMutability": "view",
			"type": "function"
		},
		{
			"inputs": [],
			"name": "decimals",
			"outputs": [
				{
					"internalType": "uint8",
					"name": "",
					"type": "uint8"
				}
			],
			"stateMutability": "view",
			"type": "function"
		},
		{
			"inputs": [
				{
					"internalType": "address",
					"name": "account",
					"type": "address"
				},
				{
					"internalType": "uint256",
					"name": "amount",
					"type": "uint256"
				}
			],
			"name": "mint_for_test",
			"outputs": [],
			"stateMutability": "nonpayable",
			"type": "function"
		},
		{
			"inputs": [],
			"name": "name",
			"outputs": [
				{
					"internalType": "string",
					"name": "",
					"type": "string"
				}
			],
			"stateMutability": "view",
			"type": "function"
		},
		{
			"inputs": [],
			"name": "symbol",
			"outputs": [
				{
					"internalType": "string",
					"name": "",
					"type": "string"
				}
			],
			"stateMutability": "view",
			"type": "function"
		},
		{
			"inputs": [],
			"name": "totalSupply",
			"outputs": [
				{
					"internalType": "uint256",
					"name": "",
					"type": "uint256"
				}
			],
			"stateMutability": "view",
			"type": "function"
		},
		{
			"inputs": [
				{
					"internalType": "address",
					"name": "_to",
					"type": "address"
				},
				{
					"internalType": "uint256",
					"name": "_value",
					"type": "uint256"
				}
			],
			"name": "transfer",
			"outputs": [
				{
					"internalType": "bool",
					"name": "success",
					"type": "bool"
				}
			],
			"stateMutability": "nonpayable",
			"type": "function"
		},
		{
			"inputs": [
				{
					"internalType": "address",
					"name": "_from",
					"type": "address"
				},
				{
					"internalType": "address",
					"name": "_to",
					"type": "address"
				},
				{
					"internalType": "uint256",
					"name": "_value",
					"type": "uint256"
				}
			],
			"name": "transferFrom",
			"outputs": [
				{
					"internalType": "bool",
					"name": "success",
					"type": "bool"
				}
			],
			"stateMutability": "nonpayable",
			"type": "function"
		}
	]
}