{
	"data": {
		"bytecode": {
			"linkReferences": {},
			"object": "6080604052604b600555600360065f6101000a81548160ff021916908360ff16021790555034801561002f575f80fd5b5060405161277138038061277183398181016040528101906100519190610222565b8060015f6101000a81548173ffffffffffffffffffffffffffffffffffffffff021916908373ffffffffffffffffffffffffffffffffffffffff160217905550805f806101000a81548173ffffffffffffffffffffffffffffffffffffffff021916908373ffffffffffffffffffffffffffffffffffffffff1602179055503360045f6101000a81548173ffffffffffffffffffffffffffffffffffffffff021916908373ffffffffffffffffffffffffffffffffffffffff1602179055505f69d3c21bcecceda100000090505f8054906101000a900473ffffffffffffffffffffffffffffffffffffffff1673ffffffffffffffffffffffffffffffffffffffff166340c10f1930836040518363ffffffff1660e01b8152600401610178929190610274565b5f604051808303815f87803b15801561018f575f80fd5b505af11580156101a1573d5f803e3d5ffd5b505050508060025f8282546101b691906102c8565b9250508190555050506102fb565b5f80fd5b5f73ffffffffffffffffffffffffffffffffffffffff82169050919050565b5f6101f1826101c8565b9050919050565b610201816101e7565b811461020b575f80fd5b50565b5f8151905061021c816101f8565b92915050565b5f60208284031215610237576102366101c4565b5b5f6102448482850161020e565b91505092915050565b610256816101e7565b82525050565b5f819050919050565b61026e8161025c565b82525050565b5f6040820190506102875f83018561024d565b6102946020830184610265565b9392505050565b7f4e487b71000000000000000000000000000000000000000000000000000000005f52601160045260245ffd5b5f6102d28261025c565b91506102dd8361025c565b92508282019050808211156102f5576102f461029b565b5b92915050565b612469806103085f395ff3fe608060405234801561000f575f80fd5b50600436106100a7575f3560e01c80638c3104921161006f5780638c310492146101565780639795f6d514610174578063afd2c74e14610192578063c8843bc7146101b0578063e8a7da8e146101ce578063f851a440146101fe576100a7565b8063046d828e146100ab57806308b1b533146100e25780632dd97930146101005780636f6cdafb1461011c57806378a14d0e14610138575b5f80fd5b6100c560048036038101906100c09190611288565b61021c565b6040516100d998979695949392919061136e565b60405180910390f35b6100ea6103d0565b6040516100f791906113f8565b60405180910390f35b61011a6004803603810190610115919061153d565b6103d6565b005b610136600480360381019061013191906116a3565b6109a5565b005b610140610e42565b60405161014d91906113f8565b60405180910390f35b61015e610e48565b60405161016b9190611728565b60405180910390f35b61017c610e5a565b604051610189919061179c565b60405180910390f35b61019a610e7d565b6040516101a791906117b5565b60405180910390f35b6101b8610ea2565b6040516101c591906113f8565b60405180910390f35b6101e860048036038101906101e391906117ce565b610ea8565b6040516101f591906119dd565b60405180910390f35b6102066111c5565b60405161021391906117b5565b60405180910390f35b6007602052815f5260405f208181548110610235575f80fd5b905f5260205f2090600802015f9150915050805f015f9054906101000a900473ffffffffffffffffffffffffffffffffffffffff1690806001015490806002015f9054906101000a900473ffffffffffffffffffffffffffffffffffffffff16908060030154908060040154908060050180546102b190611a2a565b80601f01602080910402602001604051908101604052809291908181526020018280546102dd90611a2a565b80156103285780601f106102ff57610100808354040283529160200191610328565b820191905f5260205f20905b81548152906001019060200180831161030b57829003601f168201915b505050505090806006015f9054906101000a900460ff169080600701805461034f90611a2a565b80601f016020809104026020016040519081016040528092919081815260200182805461037b90611a2a565b80156103c65780601f1061039d576101008083540402835291602001916103c6565b820191905f5260205f20905b8154815290600101906020018083116103a957829003601f168201915b5050505050905088565b60035481565b60065f9054906101000a900460ff1660ff1660075f3373ffffffffffffffffffffffffffffffffffffffff1673ffffffffffffffffffffffffffffffffffffffff1681526020019081526020015f208054905010610469576040517f08c379a000000000000000000000000000000000000000000000000000000000815260040161046090611aa4565b60405180910390fd5b5f81116104ab576040517f08c379a00000000000000000000000000000000000000000000000000000000081526004016104a290611b32565b60405180910390fd5b5f6064600554836104bc9190611b7d565b6104c69190611beb565b905080600254101561050d576040517f08c379a000000000000000000000000000000000000000000000000000000000815260040161050490611c65565b60405180910390fd5b5f60405180610100016040528060015f9054906101000a900473ffffffffffffffffffffffffffffffffffffffff1673ffffffffffffffffffffffffffffffffffffffff1681526020018381526020018573ffffffffffffffffffffffffffffffffffffffff16815260200184815260200160055481526020018681526020015f1515815260200160405180602001604052805f815250815250905060075f3373ffffffffffffffffffffffffffffffffffffffff1673ffffffffffffffffffffffffffffffffffffffff1681526020019081526020015f2081908060018154018082558091505060019003905f5260205f2090600802015f909190919091505f820151815f015f6101000a81548173ffffffffffffffffffffffffffffffffffffffff021916908373ffffffffffffffffffffffffffffffffffffffff160217905550602082015181600101556040820151816002015f6101000a81548173ffffffffffffffffffffffffffffffffffffffff021916908373ffffffffffffffffffffffffffffffffffffffff160217905550606082015181600301556080820151816004015560a08201518160050190816106ca9190611e17565b5060c0820151816006015f6101000a81548160ff02191690831515021790555060e08201518160070190816106ff9190611e17565b5050505f8490505f8173ffffffffffffffffffffffffffffffffffffffff166370a08231336040518263ffffffff1660e01b815260040161074091906117b5565b602060405180830381865afa15801561075b573d5f803e3d5ffd5b505050506040513d601f19601f8201168201806040525081019061077f9190611efa565b90508481116107c3576040517f08c379a00000000000000000000000000000000000000000000000000000000081526004016107ba90611f95565b60405180910390fd5b8173ffffffffffffffffffffffffffffffffffffffff166323b872dd3330886040518463ffffffff1660e01b815260040161080093929190611fb3565b6020604051808303815f875af115801561081c573d5f803e3d5ffd5b505050506040513d601f19601f820116820180604052508101906108409190612012565b61087f576040517f08c379a000000000000000000000000000000000000000000000000000000000815260040161087690612087565b60405180910390fd5b8460035f82825461089091906120a5565b925050819055505f8054906101000a900473ffffffffffffffffffffffffffffffffffffffff1673ffffffffffffffffffffffffffffffffffffffff1663a9059cbb33866040518363ffffffff1660e01b81526004016108f19291906120d8565b6020604051808303815f875af115801561090d573d5f803e3d5ffd5b505050506040513d601f19601f820116820180604052508101906109319190612012565b508360025f82825461094391906120ff565b925050819055503373ffffffffffffffffffffffffffffffffffffffff167fbe0bbfdd04c55ecc59879a3d34c128008b3cc0d31a635237060413177b01862985878a60405161099493929190612132565b60405180910390a250505050505050565b5f8151116109e8576040517f08c379a00000000000000000000000000000000000000000000000000000000081526004016109df906121b8565b60405180910390fd5b60065f9054906101000a900460ff1660ff1681511115610a3d576040517f08c379a0000000000000000000000000000000000000000000000000000000008152600401610a3490612220565b60405180910390fd5b5f5b81518160ff161015610e3d575f828260ff1681518110610a6257610a6161223e565b5b6020026020010151905060075f3373ffffffffffffffffffffffffffffffffffffffff1673ffffffffffffffffffffffffffffffffffffffff1681526020019081526020015f20805490508160ff1610610af1576040517f08c379a0000000000000000000000000000000000000000000000000000000008152600401610ae8906122b5565b60405180910390fd5b5f60075f3373ffffffffffffffffffffffffffffffffffffffff1673ffffffffffffffffffffffffffffffffffffffff1681526020019081526020015f208260ff1681548110610b4457610b4361223e565b5b905f5260205f2090600802019050806006015f9054906101000a900460ff1615610ba3576040517f08c379a0000000000000000000000000000000000000000000000000000000008152600401610b9a9061231d565b60405180910390fd5b5f8054906101000a900473ffffffffffffffffffffffffffffffffffffffff1673ffffffffffffffffffffffffffffffffffffffff166323b872dd333084600101546040518463ffffffff1660e01b8152600401610c0393929190611fb3565b6020604051808303815f875af1158015610c1f573d5f803e3d5ffd5b505050506040513d601f19601f82011682018060405250810190610c439190612012565b610c82576040517f08c379a0000000000000000000000000000000000000000000000000000000008152600401610c7990612385565b60405180910390fd5b806001015460025f828254610c9791906120a5565b925050819055505f816002015f9054906101000a900473ffffffffffffffffffffffffffffffffffffffff1690508073ffffffffffffffffffffffffffffffffffffffff1663a9059cbb3384600301546040518363ffffffff1660e01b8152600401610d049291906120d8565b6020604051808303815f875af1158015610d20573d5f803e3d5ffd5b505050506040513d601f19601f82011682018060405250810190610d449190612012565b610d83576040517f08c379a0000000000000000000000000000000000000000000000000000000008152600401610d7a90612087565b60405180910390fd5b816003015460035f828254610d9891906120ff565b9250508190555085826007019081610db09190611e17565b506001826006015f6101000a81548160ff0219169083151502179055503373ffffffffffffffffffffffffffffffffffffffff167f6f53d096325462183640905bc09efcb9435b4f84d34bd77e9d1ff2583392506d8360010154846003015489604051610e1f93929190612132565b60405180910390a25050508080610e35906123a3565b915050610a3f565b505050565b60055481565b60065f9054906101000a900460ff1681565b5f8054906101000a900473ffffffffffffffffffffffffffffffffffffffff1681565b60015f9054906101000a900473ffffffffffffffffffffffffffffffffffffffff1681565b60025481565b60605f60075f8473ffffffffffffffffffffffffffffffffffffffff1673ffffffffffffffffffffffffffffffffffffffff1681526020019081526020015f208054905011610f2c576040517f08c379a0000000000000000000000000000000000000000000000000000000008152600401610f2390612415565b60405180910390fd5b60075f8373ffffffffffffffffffffffffffffffffffffffff1673ffffffffffffffffffffffffffffffffffffffff1681526020019081526020015f20805480602002602001604051908101604052809291908181526020015f905b828210156111ba578382905f5260205f209060080201604051806101000160405290815f82015f9054906101000a900473ffffffffffffffffffffffffffffffffffffffff1673ffffffffffffffffffffffffffffffffffffffff1673ffffffffffffffffffffffffffffffffffffffff16815260200160018201548152602001600282015f9054906101000a900473ffffffffffffffffffffffffffffffffffffffff1673ffffffffffffffffffffffffffffffffffffffff1673ffffffffffffffffffffffffffffffffffffffff168152602001600382015481526020016004820154815260200160058201805461108190611a2a565b80601f01602080910402602001604051908101604052809291908181526020018280546110ad90611a2a565b80156110f85780601f106110cf576101008083540402835291602001916110f8565b820191905f5260205f20905b8154815290600101906020018083116110db57829003601f168201915b50505050508152602001600682015f9054906101000a900460ff1615151515815260200160078201805461112b90611a2a565b80601f016020809104026020016040519081016040528092919081815260200182805461115790611a2a565b80156111a25780601f10611179576101008083540402835291602001916111a2565b820191905f5260205f20905b81548152906001019060200180831161118557829003601f168201915b50505050508152505081526020019060010190610f88565b505050509050919050565b60045f9054906101000a900473ffffffffffffffffffffffffffffffffffffffff1681565b5f604051905090565b5f80fd5b5f80fd5b5f73ffffffffffffffffffffffffffffffffffffffff82169050919050565b5f611224826111fb565b9050919050565b6112348161121a565b811461123e575f80fd5b50565b5f8135905061124f8161122b565b92915050565b5f819050919050565b61126781611255565b8114611271575f80fd5b50565b5f813590506112828161125e565b92915050565b5f806040838503121561129e5761129d6111f3565b5b5f6112ab85828601611241565b92505060206112bc85828601611274565b9150509250929050565b6112cf8161121a565b82525050565b6112de81611255565b82525050565b5f81519050919050565b5f82825260208201905092915050565b8281835e5f83830152505050565b5f601f19601f8301169050919050565b5f611326826112e4565b61133081856112ee565b93506113408185602086016112fe565b6113498161130c565b840191505092915050565b5f8115159050919050565b61136881611354565b82525050565b5f610100820190506113825f83018b6112c6565b61138f602083018a6112d5565b61139c60408301896112c6565b6113a960608301886112d5565b6113b660808301876112d5565b81810360a08301526113c8818661131c565b90506113d760c083018561135f565b81810360e08301526113e9818461131c565b90509998505050505050505050565b5f60208201905061140b5f8301846112d5565b92915050565b5f80fd5b5f80fd5b7f4e487b71000000000000000000000000000000000000000000000000000000005f52604160045260245ffd5b61144f8261130c565b810181811067ffffffffffffffff8211171561146e5761146d611419565b5b80604052505050565b5f6114806111ea565b905061148c8282611446565b919050565b5f67ffffffffffffffff8211156114ab576114aa611419565b5b6114b48261130c565b9050602081019050919050565b828183375f83830152505050565b5f6114e16114dc84611491565b611477565b9050828152602081018484840111156114fd576114fc611415565b5b6115088482856114c1565b509392505050565b5f82601f83011261152457611523611411565b5b81356115348482602086016114cf565b91505092915050565b5f805f60608486031215611554576115536111f3565b5b5f84013567ffffffffffffffff811115611571576115706111f7565b5b61157d86828701611510565b935050602061158e86828701611241565b925050604061159f86828701611274565b9150509250925092565b5f67ffffffffffffffff8211156115c3576115c2611419565b5b602082029050602081019050919050565b5f80fd5b5f60ff82169050919050565b6115ed816115d8565b81146115f7575f80fd5b50565b5f81359050611608816115e4565b92915050565b5f61162061161b846115a9565b611477565b90508083825260208201905060208402830185811115611643576116426115d4565b5b835b8181101561166c578061165888826115fa565b845260208401935050602081019050611645565b5050509392505050565b5f82601f83011261168a57611689611411565b5b813561169a84826020860161160e565b91505092915050565b5f80604083850312156116b9576116b86111f3565b5b5f83013567ffffffffffffffff8111156116d6576116d56111f7565b5b6116e285828601611510565b925050602083013567ffffffffffffffff811115611703576117026111f7565b5b61170f85828601611676565b9150509250929050565b611722816115d8565b82525050565b5f60208201905061173b5f830184611719565b92915050565b5f819050919050565b5f61176461175f61175a846111fb565b611741565b6111fb565b9050919050565b5f6117758261174a565b9050919050565b5f6117868261176b565b9050919050565b6117968161177c565b82525050565b5f6020820190506117af5f83018461178d565b92915050565b5f6020820190506117c85f8301846112c6565b92915050565b5f602082840312156117e3576117e26111f3565b5b5f6117f084828501611241565b91505092915050565b5f81519050919050565b5f82825260208201905092915050565b5f819050602082019050919050565b61182b8161121a565b82525050565b61183a81611255565b82525050565b5f82825260208201905092915050565b5f61185a826112e4565b6118648185611840565b93506118748185602086016112fe565b61187d8161130c565b840191505092915050565b61189181611354565b82525050565b5f61010083015f8301516118ad5f860182611822565b5060208301516118c06020860182611831565b5060408301516118d36040860182611822565b5060608301516118e66060860182611831565b5060808301516118f96080860182611831565b5060a083015184820360a08601526119118282611850565b91505060c083015161192660c0860182611888565b5060e083015184820360e086015261193e8282611850565b9150508091505092915050565b5f6119568383611897565b905092915050565b5f602082019050919050565b5f611974826117f9565b61197e8185611803565b93508360208202850161199085611813565b805f5b858110156119cb57848403895281516119ac858261194b565b94506119b78361195e565b925060208a01995050600181019050611993565b50829750879550505050505092915050565b5f6020820190508181035f8301526119f5818461196a565b905092915050565b7f4e487b71000000000000000000000000000000000000000000000000000000005f52602260045260245ffd5b5f6002820490506001821680611a4157607f821691505b602082108103611a5457611a536119fd565b5b50919050565b7f426f72726f77696e67206c696d697420726561636865640000000000000000005f82015250565b5f611a8e6017836112ee565b9150611a9982611a5a565b602082019050919050565b5f6020820190508181035f830152611abb81611a82565b9050919050565b7f436f6c6c61746572616c20616d6f756e74206d757374206265206772656174655f8201527f72207468616e2030000000000000000000000000000000000000000000000000602082015250565b5f611b1c6028836112ee565b9150611b2782611ac2565b604082019050919050565b5f6020820190508181035f830152611b4981611b10565b9050919050565b7f4e487b71000000000000000000000000000000000000000000000000000000005f52601160045260245ffd5b5f611b8782611255565b9150611b9283611255565b9250828202611ba081611255565b91508282048414831517611bb757611bb6611b50565b5b5092915050565b7f4e487b71000000000000000000000000000000000000000000000000000000005f52601260045260245ffd5b5f611bf582611255565b9150611c0083611255565b925082611c1057611c0f611bbe565b5b828204905092915050565b7f4e6f7420656e6f75676820524d4220696e20636f6e74726163740000000000005f82015250565b5f611c4f601a836112ee565b9150611c5a82611c1b565b602082019050919050565b5f6020820190508181035f830152611c7c81611c43565b9050919050565b5f819050815f5260205f209050919050565b5f6020601f8301049050919050565b5f82821b905092915050565b5f60088302611cdf7fffffffffffffffffffffffffffffffffffffffffffffffffffffffffffffffff82611ca4565b611ce98683611ca4565b95508019841693508086168417925050509392505050565b5f611d1b611d16611d1184611255565b611741565b611255565b9050919050565b5f819050919050565b611d3483611d01565b611d48611d4082611d22565b848454611cb0565b825550505050565b5f90565b611d5c611d50565b611d67818484611d2b565b505050565b5b81811015611d8a57611d7f5f82611d54565b600181019050611d6d565b5050565b601f821115611dcf57611da081611c83565b611da984611c95565b81016020851015611db8578190505b611dcc611dc485611c95565b830182611d6c565b50505b505050565b5f82821c905092915050565b5f611def5f1984600802611dd4565b1980831691505092915050565b5f611e078383611de0565b9150826002028217905092915050565b611e20826112e4565b67ffffffffffffffff811115611e3957611e38611419565b5b611e438254611a2a565b611e4e828285611d8e565b5f60209050601f831160018114611e7f575f8415611e6d578287015190505b611e778582611dfc565b865550611ede565b601f198416611e8d86611c83565b5f5b82811015611eb457848901518255600182019150602085019450602081019050611e8f565b86831015611ed15784890151611ecd601f891682611de0565b8355505b6001600288020188555050505b505050505050565b5f81519050611ef48161125e565b92915050565b5f60208284031215611f0f57611f0e6111f3565b5b5f611f1c84828501611ee6565b91505092915050565b7f796f75206e6f74206861766520656e6f75676820746f6b656e20746f206465705f8201527f6f73697400000000000000000000000000000000000000000000000000000000602082015250565b5f611f7f6024836112ee565b9150611f8a82611f25565b604082019050919050565b5f6020820190508181035f830152611fac81611f73565b9050919050565b5f606082019050611fc65f8301866112c6565b611fd360208301856112c6565b611fe060408301846112d5565b949350505050565b611ff181611354565b8114611ffb575f80fd5b50565b5f8151905061200c81611fe8565b92915050565b5f60208284031215612027576120266111f3565b5b5f61203484828501611ffe565b91505092915050565b7f436f6c6c61746572616c207472616e73666572206661696c65640000000000005f82015250565b5f612071601a836112ee565b915061207c8261203d565b602082019050919050565b5f6020820190508181035f83015261209e81612065565b9050919050565b5f6120af82611255565b91506120ba83611255565b92508282019050808211156120d2576120d1611b50565b5b92915050565b5f6040820190506120eb5f8301856112c6565b6120f860208301846112d5565b9392505050565b5f61210982611255565b915061211483611255565b925082820390508181111561212c5761212b611b50565b5b92915050565b5f6060820190506121455f8301866112d5565b61215260208301856112d5565b8181036040830152612164818461131c565b9050949350505050565b7f4e6f206c6f616e732073656c65637465640000000000000000000000000000005f82015250565b5f6121a26011836112ee565b91506121ad8261216e565b602082019050919050565b5f6020820190508181035f8301526121cf81612196565b9050919050565b7f546f6f206d616e79206c6f616e732073656c65637465640000000000000000005f82015250565b5f61220a6017836112ee565b9150612215826121d6565b602082019050919050565b5f6020820190508181035f830152612237816121fe565b9050919050565b7f4e487b71000000000000000000000000000000000000000000000000000000005f52603260045260245ffd5b7f496e76616c6964206c6f616e20696e64657800000000000000000000000000005f82015250565b5f61229f6012836112ee565b91506122aa8261226b565b602082019050919050565b5f6020820190508181035f8301526122cc81612293565b9050919050565b7f4c6f616e20616c726561647920726570616964000000000000000000000000005f82015250565b5f6123076013836112ee565b9150612312826122d3565b602082019050919050565b5f6020820190508181035f830152612334816122fb565b9050919050565b7f4c6f616e2072657061796d656e74206661696c656400000000000000000000005f82015250565b5f61236f6015836112ee565b915061237a8261233b565b602082019050919050565b5f6020820190508181035f83015261239c81612363565b9050919050565b5f6123ad826115d8565b915060ff82036123c0576123bf611b50565b5b600182019050919050565b7f4e6f206c6f616e7320666f756e6420666f7220757365720000000000000000005f82015250565b5f6123ff6017836112ee565b915061240a826123cb565b602082019050919050565b5f6020820190508181035f83015261242c816123f3565b905091905056fea26469706673582212205d34181ac8920840c16323c78b9271388c7629c4764c06feb9f034130e6709e664736f6c634300081a0033",
			"opcodes": "PUSH1 0x80 PUSH1 0x40 MSTORE PUSH1 0x4B PUSH1 0x5 SSTORE PUSH1 0x3 PUSH1 0x6 PUSH0 PUSH2 0x100 EXP DUP2 SLOAD DUP2 PUSH1 0xFF MUL NOT AND SWAP1 DUP4 PUSH1 0xFF AND MUL OR SWAP1 SSTORE POP CALLVALUE DUP1 ISZERO PUSH2 0x2F JUMPI PUSH0 DUP1 REVERT JUMPDEST POP PUSH1 0x40 MLOAD PUSH2 0x2771 CODESIZE SUB DUP1 PUSH2 0x2771 DUP4 CODECOPY DUP2 DUP2 ADD PUSH1 0x40 MSTORE DUP2 ADD SWAP1 PUSH2 0x51 SWAP2 SWAP1 PUSH2 0x222 JUMP JUMPDEST DUP1 PUSH1 0x1 PUSH0 PUSH2 0x100 EXP DUP2 SLOAD DUP2 PUSH20 0xFFFFFFFFFFFFFFFFFFFFFFFFFFFFFFFFFFFFFFFF MUL NOT AND SWAP1 DUP4 PUSH20 0xFFFFFFFFFFFFFFFFFFFFFFFFFFFFFFFFFFFFFFFF AND MUL OR SWAP1 SSTORE POP DUP1 PUSH0 DUP1 PUSH2 0x100 EXP DUP2 SLOAD DUP2 PUSH20 0xFFFFFFFFFFFFFFFFFFFFFFFFFFFFFFFFFFFFFFFF MUL NOT AND SWAP1 DUP4 PUSH20 0xFFFFFFFFFFFFFFFFFFFFFFFFFFFFFFFFFFFFFFFF AND MUL OR SWAP1 SSTORE POP CALLER PUSH1 0x4 PUSH0 PUSH2 0x100 EXP DUP2 SLOAD DUP2 PUSH20 0xFFFFFFFFFFFFFFFFFFFFFFFFFFFFFFFFFFFFFFFF MUL NOT AND SWAP1 DUP4 PUSH20 0xFFFFFFFFFFFFFFFFFFFFFFFFFFFFFFFFFFFFFFFF AND MUL OR SWAP1 SSTORE POP PUSH0 PUSH10 0xD3C21BCECCEDA1000000 SWAP1 POP PUSH0 DUP1 SLOAD SWAP1 PUSH2 0x100 EXP SWAP1 DIV PUSH20 0xFFFFFFFFFFFFFFFFFFFFFFFFFFFFFFFFFFFFFFFF AND PUSH20 0xFFFFFFFFFFFFFFFFFFFFFFFFFFFFFFFFFFFFFFFF AND PUSH4 0x40C10F19 ADDRESS DUP4 PUSH1 0x40 MLOAD DUP4 PUSH4 0xFFFFFFFF AND PUSH1 0xE0 SHL DUP2 MSTORE PUSH1 0x4 ADD PUSH2 0x178 SWAP3 SWAP2 SWAP1 PUSH2 0x274 JUMP JUMPDEST PUSH0 PUSH1 0x40 MLOAD DUP1 DUP4 SUB DUP2 PUSH0 DUP8 DUP1 EXTCODESIZE ISZERO DUP1 ISZERO PUSH2 0x18F JUMPI PUSH0 DUP1 REVERT JUMPDEST POP GAS CALL ISZERO DUP1 ISZERO PUSH2 0x1A1 JUMPI RETURNDATASIZE PUSH0 DUP1 RETURNDATACOPY RETURNDATASIZE PUSH0 REVERT JUMPDEST POP POP POP POP DUP1 PUSH1 0x2 PUSH0 DUP3 DUP3 SLOAD PUSH2 0x1B6 SWAP2 SWAP1 PUSH2 0x2C8 JUMP JUMPDEST SWAP3 POP POP DUP2 SWAP1 SSTORE POP POP POP PUSH2 0x2FB JUMP JUMPDEST PUSH0 DUP1 REVERT JUMPDEST PUSH0 PUSH20 0xFFFFFFFFFFFFFFFFFFFFFFFFFFFFFFFFFFFFFFFF DUP3 AND SWAP1 POP SWAP2 SWAP1 POP JUMP JUMPDEST PUSH0 PUSH2 0x1F1 DUP3 PUSH2 0x1C8 JUMP JUMPDEST SWAP1 POP SWAP2 SWAP1 POP JUMP JUMPDEST PUSH2 0x201 DUP2 PUSH2 0x1E7 JUMP JUMPDEST DUP2 EQ PUSH2 0x20B JUMPI PUSH0 DUP1 REVERT JUMPDEST POP JUMP JUMPDEST PUSH0 DUP2 MLOAD SWAP1 POP PUSH2 0x21C DUP2 PUSH2 0x1F8 JUMP JUMPDEST SWAP3 SWAP2 POP POP JUMP JUMPDEST PUSH0 PUSH1 0x20 DUP3 DUP5 SUB SLT ISZERO PUSH2 0x237 JUMPI PUSH2 0x236 PUSH2 0x1C4 JUMP JUMPDEST JUMPDEST PUSH0 PUSH2 0x244 DUP5 DUP3 DUP6 ADD PUSH2 0x20E JUMP JUMPDEST SWAP2 POP POP SWAP3 SWAP2 POP POP JUMP JUMPDEST PUSH2 0x256 DUP2 PUSH2 0x1E7 JUMP JUMPDEST DUP3 MSTORE POP POP JUMP JUMPDEST PUSH0 DUP2 SWAP1 POP SWAP2 SWAP1 POP JUMP JUMPDEST PUSH2 0x26E DUP2 PUSH2 0x25C JUMP JUMPDEST DUP3 MSTORE POP POP JUMP JUMPDEST PUSH0 PUSH1 0x40 DUP3 ADD SWAP1 POP PUSH2 0x287 PUSH0 DUP4 ADD DUP6 PUSH2 0x24D JUMP JUMPDEST PUSH2 0x294 PUSH1 0x20 DUP4 ADD DUP5 PUSH2 0x265 JUMP JUMPDEST SWAP4 SWAP3 POP POP POP JUMP JUMPDEST PUSH32 0x4E487B7100000000000000000000000000000000000000000000000000000000 PUSH0 MSTORE PUSH1 0x11 PUSH1 0x4 MSTORE PUSH1 0x24 PUSH0 REVERT JUMPDEST PUSH0 PUSH2 0x2D2 DUP3 PUSH2 0x25C JUMP JUMPDEST SWAP2 POP PUSH2 0x2DD DUP4 PUSH2 0x25C JUMP JUMPDEST SWAP3 POP DUP3 DUP3 ADD SWAP1 POP DUP1 DUP3 GT ISZERO PUSH2 0x2F5 JUMPI PUSH2 0x2F4 PUSH2 0x29B JUMP JUMPDEST JUMPDEST SWAP3 SWAP2 POP POP JUMP JUMPDEST PUSH2 0x2469 DUP1 PUSH2 0x308 PUSH0 CODECOPY PUSH0 RETURN INVALID PUSH1 0x80 PUSH1 0x40 MSTORE CALLVALUE DUP1 ISZERO PUSH2 0xF JUMPI PUSH0 DUP1 REVERT JUMPDEST POP PUSH1 0x4 CALLDATASIZE LT PUSH2 0xA7 JUMPI PUSH0 CALLDATALOAD PUSH1 0xE0 SHR DUP1 PUSH4 0x8C310492 GT PUSH2 0x6F JUMPI DUP1 PUSH4 0x8C310492 EQ PUSH2 0x156 JUMPI DUP1 PUSH4 0x9795F6D5 EQ PUSH2 0x174 JUMPI DUP1 PUSH4 0xAFD2C74E EQ PUSH2 0x192 JUMPI DUP1 PUSH4 0xC8843BC7 EQ PUSH2 0x1B0 JUMPI DUP1 PUSH4 0xE8A7DA8E EQ PUSH2 0x1CE JUMPI DUP1 PUSH4 0xF851A440 EQ PUSH2 0x1FE JUMPI PUSH2 0xA7 JUMP JUMPDEST DUP1 PUSH4 0x46D828E EQ PUSH2 0xAB JUMPI DUP1 PUSH4 0x8B1B533 EQ PUSH2 0xE2 JUMPI DUP1 PUSH4 0x2DD97930 EQ PUSH2 0x100 JUMPI DUP1 PUSH4 0x6F6CDAFB EQ PUSH2 0x11C JUMPI DUP1 PUSH4 0x78A14D0E EQ PUSH2 0x138 JUMPI JUMPDEST PUSH0 DUP1 REVERT JUMPDEST PUSH2 0xC5 PUSH1 0x4 DUP1 CALLDATASIZE SUB DUP2 ADD SWAP1 PUSH2 0xC0 SWAP2 SWAP1 PUSH2 0x1288 JUMP JUMPDEST PUSH2 0x21C JUMP JUMPDEST PUSH1 0x40 MLOAD PUSH2 0xD9 SWAP9 SWAP8 SWAP7 SWAP6 SWAP5 SWAP4 SWAP3 SWAP2 SWAP1 PUSH2 0x136E JUMP JUMPDEST PUSH1 0x40 MLOAD DUP1 SWAP2 SUB SWAP1 RETURN JUMPDEST PUSH2 0xEA PUSH2 0x3D0 JUMP JUMPDEST PUSH1 0x40 MLOAD PUSH2 0xF7 SWAP2 SWAP1 PUSH2 0x13F8 JUMP JUMPDEST PUSH1 0x40 MLOAD DUP1 SWAP2 SUB SWAP1 RETURN JUMPDEST PUSH2 0x11A PUSH1 0x4 DUP1 CALLDATASIZE SUB DUP2 ADD SWAP1 PUSH2 0x115 SWAP2 SWAP1 PUSH2 0x153D JUMP JUMPDEST PUSH2 0x3D6 JUMP JUMPDEST STOP JUMPDEST PUSH2 0x136 PUSH1 0x4 DUP1 CALLDATASIZE SUB DUP2 ADD SWAP1 PUSH2 0x131 SWAP2 SWAP1 PUSH2 0x16A3 JUMP JUMPDEST PUSH2 0x9A5 JUMP JUMPDEST STOP JUMPDEST PUSH2 0x140 PUSH2 0xE42 JUMP JUMPDEST PUSH1 0x40 MLOAD PUSH2 0x14D SWAP2 SWAP1 PUSH2 0x13F8 JUMP JUMPDEST PUSH1 0x40 MLOAD DUP1 SWAP2 SUB SWAP1 RETURN JUMPDEST PUSH2 0x15E PUSH2 0xE48 JUMP JUMPDEST PUSH1 0x40 MLOAD PUSH2 0x16B SWAP2 SWAP1 PUSH2 0x1728 JUMP JUMPDEST PUSH1 0x40 MLOAD DUP1 SWAP2 SUB SWAP1 RETURN JUMPDEST PUSH2 0x17C PUSH2 0xE5A JUMP JUMPDEST PUSH1 0x40 MLOAD PUSH2 0x189 SWAP2 SWAP1 PUSH2 0x179C JUMP JUMPDEST PUSH1 0x40 MLOAD DUP1 SWAP2 SUB SWAP1 RETURN JUMPDEST PUSH2 0x19A PUSH2 0xE7D JUMP JUMPDEST PUSH1 0x40 MLOAD PUSH2 0x1A7 SWAP2 SWAP1 PUSH2 0x17B5 JUMP JUMPDEST PUSH1 0x40 MLOAD DUP1 SWAP2 SUB SWAP1 RETURN JUMPDEST PUSH2 0x1B8 PUSH2 0xEA2 JUMP JUMPDEST PUSH1 0x40 MLOAD PUSH2 0x1C5 SWAP2 SWAP1 PUSH2 0x13F8 JUMP JUMPDEST PUSH1 0x40 MLOAD DUP1 SWAP2 SUB SWAP1 RETURN JUMPDEST PUSH2 0x1E8 PUSH1 0x4 DUP1 CALLDATASIZE SUB DUP2 ADD SWAP1 PUSH2 0x1E3 SWAP2 SWAP1 PUSH2 0x17CE JUMP JUMPDEST PUSH2 0xEA8 JUMP JUMPDEST PUSH1 0x40 MLOAD PUSH2 0x1F5 SWAP2 SWAP1 PUSH2 0x19DD JUMP JUMPDEST PUSH1 0x40 MLOAD DUP1 SWAP2 SUB SWAP1 RETURN JUMPDEST PUSH2 0x206 PUSH2 0x11C5 JUMP JUMPDEST PUSH1 0x40 MLOAD PUSH2 0x213 SWAP2 SWAP1 PUSH2 0x17B5 JUMP JUMPDEST PUSH1 0x40 MLOAD DUP1 SWAP2 SUB SWAP1 RETURN JUMPDEST PUSH1 0x7 PUSH1 0x20 MSTORE DUP2 PUSH0 MSTORE PUSH1 0x40 PUSH0 KECCAK256 DUP2 DUP2 SLOAD DUP2 LT PUSH2 0x235 JUMPI PUSH0 DUP1 REVERT JUMPDEST SWAP1 PUSH0 MSTORE PUSH1 0x20 PUSH0 KECCAK256 SWAP1 PUSH1 0x8 MUL ADD PUSH0 SWAP2 POP SWAP2 POP POP DUP1 PUSH0 ADD PUSH0 SWAP1 SLOAD SWAP1 PUSH2 0x100 EXP SWAP1 DIV PUSH20 0xFFFFFFFFFFFFFFFFFFFFFFFFFFFFFFFFFFFFFFFF AND SWAP1 DUP1 PUSH1 0x1 ADD SLOAD SWAP1 DUP1 PUSH1 0x2 ADD PUSH0 SWAP1 SLOAD SWAP1 PUSH2 0x100 EXP SWAP1 DIV PUSH20 0xFFFFFFFFFFFFFFFFFFFFFFFFFFFFFFFFFFFFFFFF AND SWAP1 DUP1 PUSH1 0x3 ADD SLOAD SWAP1 DUP1 PUSH1 0x4 ADD SLOAD SWAP1 DUP1 PUSH1 0x5 ADD DUP1 SLOAD PUSH2 0x2B1 SWAP1 PUSH2 0x1A2A JUMP JUMPDEST DUP1 PUSH1 0x1F ADD PUSH1 0x20 DUP1 SWAP2 DIV MUL PUSH1 0x20 ADD PUSH1 0x40 MLOAD SWAP1 DUP2 ADD PUSH1 0x40 MSTORE DUP1 SWAP3 SWAP2 SWAP1 DUP2 DUP2 MSTORE PUSH1 0x20 ADD DUP3 DUP1 SLOAD PUSH2 0x2DD SWAP1 PUSH2 0x1A2A JUMP JUMPDEST DUP1 ISZERO PUSH2 0x328 JUMPI DUP1 PUSH1 0x1F LT PUSH2 0x2FF JUMPI PUSH2 0x100 DUP1 DUP4 SLOAD DIV MUL DUP4 MSTORE SWAP2 PUSH1 0x20 ADD SWAP2 PUSH2 0x328 JUMP JUMPDEST DUP3 ADD SWAP2 SWAP1 PUSH0 MSTORE PUSH1 0x20 PUSH0 KECCAK256 SWAP1 JUMPDEST DUP2 SLOAD DUP2 MSTORE SWAP1 PUSH1 0x1 ADD SWAP1 PUSH1 0x20 ADD DUP1 DUP4 GT PUSH2 0x30B JUMPI DUP3 SWAP1 SUB PUSH1 0x1F AND DUP3 ADD SWAP2 JUMPDEST POP POP POP POP POP SWAP1 DUP1 PUSH1 0x6 ADD PUSH0 SWAP1 SLOAD SWAP1 PUSH2 0x100 EXP SWAP1 DIV PUSH1 0xFF AND SWAP1 DUP1 PUSH1 0x7 ADD DUP1 SLOAD PUSH2 0x34F SWAP1 PUSH2 0x1A2A JUMP JUMPDEST DUP1 PUSH1 0x1F ADD PUSH1 0x20 DUP1 SWAP2 DIV MUL PUSH1 0x20 ADD PUSH1 0x40 MLOAD SWAP1 DUP2 ADD PUSH1 0x40 MSTORE DUP1 SWAP3 SWAP2 SWAP1 DUP2 DUP2 MSTORE PUSH1 0x20 ADD DUP3 DUP1 SLOAD PUSH2 0x37B SWAP1 PUSH2 0x1A2A JUMP JUMPDEST DUP1 ISZERO PUSH2 0x3C6 JUMPI DUP1 PUSH1 0x1F LT PUSH2 0x39D JUMPI PUSH2 0x100 DUP1 DUP4 SLOAD DIV MUL DUP4 MSTORE SWAP2 PUSH1 0x20 ADD SWAP2 PUSH2 0x3C6 JUMP JUMPDEST DUP3 ADD SWAP2 SWAP1 PUSH0 MSTORE PUSH1 0x20 PUSH0 KECCAK256 SWAP1 JUMPDEST DUP2 SLOAD DUP2 MSTORE SWAP1 PUSH1 0x1 ADD SWAP1 PUSH1 0x20 ADD DUP1 DUP4 GT PUSH2 0x3A9 JUMPI DUP3 SWAP1 SUB PUSH1 0x1F AND DUP3 ADD SWAP2 JUMPDEST POP POP POP POP POP SWAP1 POP DUP9 JUMP JUMPDEST PUSH1 0x3 SLOAD DUP2 JUMP JUMPDEST PUSH1 0x6 PUSH0 SWAP1 SLOAD SWAP1 PUSH2 0x100 EXP SWAP1 DIV PUSH1 0xFF AND PUSH1 0xFF AND PUSH1 0x7 PUSH0 CALLER PUSH20 0xFFFFFFFFFFFFFFFFFFFFFFFFFFFFFFFFFFFFFFFF AND PUSH20 0xFFFFFFFFFFFFFFFFFFFFFFFFFFFFFFFFFFFFFFFF AND DUP2 MSTORE PUSH1 0x20 ADD SWAP1 DUP2 MSTORE PUSH1 0x20 ADD PUSH0 KECCAK256 DUP1 SLOAD SWAP1 POP LT PUSH2 0x469 JUMPI PUSH1 0x40 MLOAD PUSH32 0x8C379A000000000000000000000000000000000000000000000000000000000 DUP2 MSTORE PUSH1 0x4 ADD PUSH2 0x460 SWAP1 PUSH2 0x1AA4 JUMP JUMPDEST PUSH1 0x40 MLOAD DUP1 SWAP2 SUB SWAP1 REVERT JUMPDEST PUSH0 DUP2 GT PUSH2 0x4AB JUMPI PUSH1 0x40 MLOAD PUSH32 0x8C379A000000000000000000000000000000000000000000000000000000000 DUP2 MSTORE PUSH1 0x4 ADD PUSH2 0x4A2 SWAP1 PUSH2 0x1B32 JUMP JUMPDEST PUSH1 0x40 MLOAD DUP1 SWAP2 SUB SWAP1 REVERT JUMPDEST PUSH0 PUSH1 0x64 PUSH1 0x5 SLOAD DUP4 PUSH2 0x4BC SWAP2 SWAP1 PUSH2 0x1B7D JUMP JUMPDEST PUSH2 0x4C6 SWAP2 SWAP1 PUSH2 0x1BEB JUMP JUMPDEST SWAP1 POP DUP1 PUSH1 0x2 SLOAD LT ISZERO PUSH2 0x50D JUMPI PUSH1 0x40 MLOAD PUSH32 0x8C379A000000000000000000000000000000000000000000000000000000000 DUP2 MSTORE PUSH1 0x4 ADD PUSH2 0x504 SWAP1 PUSH2 0x1C65 JUMP JUMPDEST PUSH1 0x40 MLOAD DUP1 SWAP2 SUB SWAP1 REVERT JUMPDEST PUSH0 PUSH1 0x40 MLOAD DUP1 PUSH2 0x100 ADD PUSH1 0x40 MSTORE DUP1 PUSH1 0x1 PUSH0 SWAP1 SLOAD SWAP1 PUSH2 0x100 EXP SWAP1 DIV PUSH20 0xFFFFFFFFFFFFFFFFFFFFFFFFFFFFFFFFFFFFFFFF AND PUSH20 0xFFFFFFFFFFFFFFFFFFFFFFFFFFFFFFFFFFFFFFFF AND DUP2 MSTORE PUSH1 0x20 ADD DUP4 DUP2 MSTORE PUSH1 0x20 ADD DUP6 PUSH20 0xFFFFFFFFFFFFFFFFFFFFFFFFFFFFFFFFFFFFFFFF AND DUP2 MSTORE PUSH1 0x20 ADD DUP5 DUP2 MSTORE PUSH1 0x20 ADD PUSH1 0x5 SLOAD DUP2 MSTORE PUSH1 0x20 ADD DUP7 DUP2 MSTORE PUSH1 0x20 ADD PUSH0 ISZERO ISZERO DUP2 MSTORE PUSH1 0x20 ADD PUSH1 0x40 MLOAD DUP1 PUSH1 0x20 ADD PUSH1 0x40 MSTORE DUP1 PUSH0 DUP2 MSTORE POP DUP2 MSTORE POP SWAP1 POP PUSH1 0x7 PUSH0 CALLER PUSH20 0xFFFFFFFFFFFFFFFFFFFFFFFFFFFFFFFFFFFFFFFF AND PUSH20 0xFFFFFFFFFFFFFFFFFFFFFFFFFFFFFFFFFFFFFFFF AND DUP2 MSTORE PUSH1 0x20 ADD SWAP1 DUP2 MSTORE PUSH1 0x20 ADD PUSH0 KECCAK256 DUP2 SWAP1 DUP1 PUSH1 0x1 DUP2 SLOAD ADD DUP1 DUP3 SSTORE DUP1 SWAP2 POP POP PUSH1 0x1 SWAP1 SUB SWAP1 PUSH0 MSTORE PUSH1 0x20 PUSH0 KECCAK256 SWAP1 PUSH1 0x8 MUL ADD PUSH0 SWAP1 SWAP2 SWAP1 SWAP2 SWAP1 SWAP2 POP PUSH0 DUP3 ADD MLOAD DUP2 PUSH0 ADD PUSH0 PUSH2 0x100 EXP DUP2 SLOAD DUP2 PUSH20 0xFFFFFFFFFFFFFFFFFFFFFFFFFFFFFFFFFFFFFFFF MUL NOT AND SWAP1 DUP4 PUSH20 0xFFFFFFFFFFFFFFFFFFFFFFFFFFFFFFFFFFFFFFFF AND MUL OR SWAP1 SSTORE POP PUSH1 0x20 DUP3 ADD MLOAD DUP2 PUSH1 0x1 ADD SSTORE PUSH1 0x40 DUP3 ADD MLOAD DUP2 PUSH1 0x2 ADD PUSH0 PUSH2 0x100 EXP DUP2 SLOAD DUP2 PUSH20 0xFFFFFFFFFFFFFFFFFFFFFFFFFFFFFFFFFFFFFFFF MUL NOT AND SWAP1 DUP4 PUSH20 0xFFFFFFFFFFFFFFFFFFFFFFFFFFFFFFFFFFFFFFFF AND MUL OR SWAP1 SSTORE POP PUSH1 0x60 DUP3 ADD MLOAD DUP2 PUSH1 0x3 ADD SSTORE PUSH1 0x80 DUP3 ADD MLOAD DUP2 PUSH1 0x4 ADD SSTORE PUSH1 0xA0 DUP3 ADD MLOAD DUP2 PUSH1 0x5 ADD SWAP1 DUP2 PUSH2 0x6CA SWAP2 SWAP1 PUSH2 0x1E17 JUMP JUMPDEST POP PUSH1 0xC0 DUP3 ADD MLOAD DUP2 PUSH1 0x6 ADD PUSH0 PUSH2 0x100 EXP DUP2 SLOAD DUP2 PUSH1 0xFF MUL NOT AND SWAP1 DUP4 ISZERO ISZERO MUL OR SWAP1 SSTORE POP PUSH1 0xE0 DUP3 ADD MLOAD DUP2 PUSH1 0x7 ADD SWAP1 DUP2 PUSH2 0x6FF SWAP2 SWAP1 PUSH2 0x1E17 JUMP JUMPDEST POP POP POP PUSH0 DUP5 SWAP1 POP PUSH0 DUP2 PUSH20 0xFFFFFFFFFFFFFFFFFFFFFFFFFFFFFFFFFFFFFFFF AND PUSH4 0x70A08231 CALLER PUSH1 0x40 MLOAD DUP3 PUSH4 0xFFFFFFFF AND PUSH1 0xE0 SHL DUP2 MSTORE PUSH1 0x4 ADD PUSH2 0x740 SWAP2 SWAP1 PUSH2 0x17B5 JUMP JUMPDEST PUSH1 0x20 PUSH1 0x40 MLOAD DUP1 DUP4 SUB DUP2 DUP7 GAS STATICCALL ISZERO DUP1 ISZERO PUSH2 0x75B JUMPI RETURNDATASIZE PUSH0 DUP1 RETURNDATACOPY RETURNDATASIZE PUSH0 REVERT JUMPDEST POP POP POP POP PUSH1 0x40 MLOAD RETURNDATASIZE PUSH1 0x1F NOT PUSH1 0x1F DUP3 ADD AND DUP3 ADD DUP1 PUSH1 0x40 MSTORE POP DUP2 ADD SWAP1 PUSH2 0x77F SWAP2 SWAP1 PUSH2 0x1EFA JUMP JUMPDEST SWAP1 POP DUP5 DUP2 GT PUSH2 0x7C3 JUMPI PUSH1 0x40 MLOAD PUSH32 0x8C379A000000000000000000000000000000000000000000000000000000000 DUP2 MSTORE PUSH1 0x4 ADD PUSH2 0x7BA SWAP1 PUSH2 0x1F95 JUMP JUMPDEST PUSH1 0x40 MLOAD DUP1 SWAP2 SUB SWAP1 REVERT JUMPDEST DUP2 PUSH20 0xFFFFFFFFFFFFFFFFFFFFFFFFFFFFFFFFFFFFFFFF AND PUSH4 0x23B872DD CALLER ADDRESS DUP9 PUSH1 0x40 MLOAD DUP5 PUSH4 0xFFFFFFFF AND PUSH1 0xE0 SHL DUP2 MSTORE PUSH1 0x4 ADD PUSH2 0x800 SWAP4 SWAP3 SWAP2 SWAP1 PUSH2 0x1FB3 JUMP JUMPDEST PUSH1 0x20 PUSH1 0x40 MLOAD DUP1 DUP4 SUB DUP2 PUSH0 DUP8 GAS CALL ISZERO DUP1 ISZERO PUSH2 0x81C JUMPI RETURNDATASIZE PUSH0 DUP1 RETURNDATACOPY RETURNDATASIZE PUSH0 REVERT JUMPDEST POP POP POP POP PUSH1 0x40 MLOAD RETURNDATASIZE PUSH1 0x1F NOT PUSH1 0x1F DUP3 ADD AND DUP3 ADD DUP1 PUSH1 0x40 MSTORE POP DUP2 ADD SWAP1 PUSH2 0x840 SWAP2 SWAP1 PUSH2 0x2012 JUMP JUMPDEST PUSH2 0x87F JUMPI PUSH1 0x40 MLOAD PUSH32 0x8C379A000000000000000000000000000000000000000000000000000000000 DUP2 MSTORE PUSH1 0x4 ADD PUSH2 0x876 SWAP1 PUSH2 0x2087 JUMP JUMPDEST PUSH1 0x40 MLOAD DUP1 SWAP2 SUB SWAP1 REVERT JUMPDEST DUP5 PUSH1 0x3 PUSH0 DUP3 DUP3 SLOAD PUSH2 0x890 SWAP2 SWAP1 PUSH2 0x20A5 JUMP JUMPDEST SWAP3 POP POP DUP2 SWAP1 SSTORE POP PUSH0 DUP1 SLOAD SWAP1 PUSH2 0x100 EXP SWAP1 DIV PUSH20 0xFFFFFFFFFFFFFFFFFFFFFFFFFFFFFFFFFFFFFFFF AND PUSH20 0xFFFFFFFFFFFFFFFFFFFFFFFFFFFFFFFFFFFFFFFF AND PUSH4 0xA9059CBB CALLER DUP7 PUSH1 0x40 MLOAD DUP4 PUSH4 0xFFFFFFFF AND PUSH1 0xE0 SHL DUP2 MSTORE PUSH1 0x4 ADD PUSH2 0x8F1 SWAP3 SWAP2 SWAP1 PUSH2 0x20D8 JUMP JUMPDEST PUSH1 0x20 PUSH1 0x40 MLOAD DUP1 DUP4 SUB DUP2 PUSH0 DUP8 GAS CALL ISZERO DUP1 ISZERO PUSH2 0x90D JUMPI RETURNDATASIZE PUSH0 DUP1 RETURNDATACOPY RETURNDATASIZE PUSH0 REVERT JUMPDEST POP POP POP POP PUSH1 0x40 MLOAD RETURNDATASIZE PUSH1 0x1F NOT PUSH1 0x1F DUP3 ADD AND DUP3 ADD DUP1 PUSH1 0x40 MSTORE POP DUP2 ADD SWAP1 PUSH2 0x931 SWAP2 SWAP1 PUSH2 0x2012 JUMP JUMPDEST POP DUP4 PUSH1 0x2 PUSH0 DUP3 DUP3 SLOAD PUSH2 0x943 SWAP2 SWAP1 PUSH2 0x20FF JUMP JUMPDEST SWAP3 POP POP DUP2 SWAP1 SSTORE POP CALLER PUSH20 0xFFFFFFFFFFFFFFFFFFFFFFFFFFFFFFFFFFFFFFFF AND PUSH32 0xBE0BBFDD04C55ECC59879A3D34C128008B3CC0D31A635237060413177B018629 DUP6 DUP8 DUP11 PUSH1 0x40 MLOAD PUSH2 0x994 SWAP4 SWAP3 SWAP2 SWAP1 PUSH2 0x2132 JUMP JUMPDEST PUSH1 0x40 MLOAD DUP1 SWAP2 SUB SWAP1 LOG2 POP POP POP POP POP POP POP JUMP JUMPDEST PUSH0 DUP2 MLOAD GT PUSH2 0x9E8 JUMPI PUSH1 0x40 MLOAD PUSH32 0x8C379A000000000000000000000000000000000000000000000000000000000 DUP2 MSTORE PUSH1 0x4 ADD PUSH2 0x9DF SWAP1 PUSH2 0x21B8 JUMP JUMPDEST PUSH1 0x40 MLOAD DUP1 SWAP2 SUB SWAP1 REVERT JUMPDEST PUSH1 0x6 PUSH0 SWAP1 SLOAD SWAP1 PUSH2 0x100 EXP SWAP1 DIV PUSH1 0xFF AND PUSH1 0xFF AND DUP2 MLOAD GT ISZERO PUSH2 0xA3D JUMPI PUSH1 0x40 MLOAD PUSH32 0x8C379A000000000000000000000000000000000000000000000000000000000 DUP2 MSTORE PUSH1 0x4 ADD PUSH2 0xA34 SWAP1 PUSH2 0x2220 JUMP JUMPDEST PUSH1 0x40 MLOAD DUP1 SWAP2 SUB SWAP1 REVERT JUMPDEST PUSH0 JUMPDEST DUP2 MLOAD DUP2 PUSH1 0xFF AND LT ISZERO PUSH2 0xE3D JUMPI PUSH0 DUP3 DUP3 PUSH1 0xFF AND DUP2 MLOAD DUP2 LT PUSH2 0xA62 JUMPI PUSH2 0xA61 PUSH2 0x223E JUMP JUMPDEST JUMPDEST PUSH1 0x20 MUL PUSH1 0x20 ADD ADD MLOAD SWAP1 POP PUSH1 0x7 PUSH0 CALLER PUSH20 0xFFFFFFFFFFFFFFFFFFFFFFFFFFFFFFFFFFFFFFFF AND PUSH20 0xFFFFFFFFFFFFFFFFFFFFFFFFFFFFFFFFFFFFFFFF AND DUP2 MSTORE PUSH1 0x20 ADD SWAP1 DUP2 MSTORE PUSH1 0x20 ADD PUSH0 KECCAK256 DUP1 SLOAD SWAP1 POP DUP2 PUSH1 0xFF AND LT PUSH2 0xAF1 JUMPI PUSH1 0x40 MLOAD PUSH32 0x8C379A000000000000000000000000000000000000000000000000000000000 DUP2 MSTORE PUSH1 0x4 ADD PUSH2 0xAE8 SWAP1 PUSH2 0x22B5 JUMP JUMPDEST PUSH1 0x40 MLOAD DUP1 SWAP2 SUB SWAP1 REVERT JUMPDEST PUSH0 PUSH1 0x7 PUSH0 CALLER PUSH20 0xFFFFFFFFFFFFFFFFFFFFFFFFFFFFFFFFFFFFFFFF AND PUSH20 0xFFFFFFFFFFFFFFFFFFFFFFFFFFFFFFFFFFFFFFFF AND DUP2 MSTORE PUSH1 0x20 ADD SWAP1 DUP2 MSTORE PUSH1 0x20 ADD PUSH0 KECCAK256 DUP3 PUSH1 0xFF AND DUP2 SLOAD DUP2 LT PUSH2 0xB44 JUMPI PUSH2 0xB43 PUSH2 0x223E JUMP JUMPDEST JUMPDEST SWAP1 PUSH0 MSTORE PUSH1 0x20 PUSH0 KECCAK256 SWAP1 PUSH1 0x8 MUL ADD SWAP1 POP DUP1 PUSH1 0x6 ADD PUSH0 SWAP1 SLOAD SWAP1 PUSH2 0x100 EXP SWAP1 DIV PUSH1 0xFF AND ISZERO PUSH2 0xBA3 JUMPI PUSH1 0x40 MLOAD PUSH32 0x8C379A000000000000000000000000000000000000000000000000000000000 DUP2 MSTORE PUSH1 0x4 ADD PUSH2 0xB9A SWAP1 PUSH2 0x231D JUMP JUMPDEST PUSH1 0x40 MLOAD DUP1 SWAP2 SUB SWAP1 REVERT JUMPDEST PUSH0 DUP1 SLOAD SWAP1 PUSH2 0x100 EXP SWAP1 DIV PUSH20 0xFFFFFFFFFFFFFFFFFFFFFFFFFFFFFFFFFFFFFFFF AND PUSH20 0xFFFFFFFFFFFFFFFFFFFFFFFFFFFFFFFFFFFFFFFF AND PUSH4 0x23B872DD CALLER ADDRESS DUP5 PUSH1 0x1 ADD SLOAD PUSH1 0x40 MLOAD DUP5 PUSH4 0xFFFFFFFF AND PUSH1 0xE0 SHL DUP2 MSTORE PUSH1 0x4 ADD PUSH2 0xC03 SWAP4 SWAP3 SWAP2 SWAP1 PUSH2 0x1FB3 JUMP JUMPDEST PUSH1 0x20 PUSH1 0x40 MLOAD DUP1 DUP4 SUB DUP2 PUSH0 DUP8 GAS CALL ISZERO DUP1 ISZERO PUSH2 0xC1F JUMPI RETURNDATASIZE PUSH0 DUP1 RETURNDATACOPY RETURNDATASIZE PUSH0 REVERT JUMPDEST POP POP POP POP PUSH1 0x40 MLOAD RETURNDATASIZE PUSH1 0x1F NOT PUSH1 0x1F DUP3 ADD AND DUP3 ADD DUP1 PUSH1 0x40 MSTORE POP DUP2 ADD SWAP1 PUSH2 0xC43 SWAP2 SWAP1 PUSH2 0x2012 JUMP JUMPDEST PUSH2 0xC82 JUMPI PUSH1 0x40 MLOAD PUSH32 0x8C379A000000000000000000000000000000000000000000000000000000000 DUP2 MSTORE PUSH1 0x4 ADD PUSH2 0xC79 SWAP1 PUSH2 0x2385 JUMP JUMPDEST PUSH1 0x40 MLOAD DUP1 SWAP2 SUB SWAP1 REVERT JUMPDEST DUP1 PUSH1 0x1 ADD SLOAD PUSH1 0x2 PUSH0 DUP3 DUP3 SLOAD PUSH2 0xC97 SWAP2 SWAP1 PUSH2 0x20A5 JUMP JUMPDEST SWAP3 POP POP DUP2 SWAP1 SSTORE POP PUSH0 DUP2 PUSH1 0x2 ADD PUSH0 SWAP1 SLOAD SWAP1 PUSH2 0x100 EXP SWAP1 DIV PUSH20 0xFFFFFFFFFFFFFFFFFFFFFFFFFFFFFFFFFFFFFFFF AND SWAP1 POP DUP1 PUSH20 0xFFFFFFFFFFFFFFFFFFFFFFFFFFFFFFFFFFFFFFFF AND PUSH4 0xA9059CBB CALLER DUP5 PUSH1 0x3 ADD SLOAD PUSH1 0x40 MLOAD DUP4 PUSH4 0xFFFFFFFF AND PUSH1 0xE0 SHL DUP2 MSTORE PUSH1 0x4 ADD PUSH2 0xD04 SWAP3 SWAP2 SWAP1 PUSH2 0x20D8 JUMP JUMPDEST PUSH1 0x20 PUSH1 0x40 MLOAD DUP1 DUP4 SUB DUP2 PUSH0 DUP8 GAS CALL ISZERO DUP1 ISZERO PUSH2 0xD20 JUMPI RETURNDATASIZE PUSH0 DUP1 RETURNDATACOPY RETURNDATASIZE PUSH0 REVERT JUMPDEST POP POP POP POP PUSH1 0x40 MLOAD RETURNDATASIZE PUSH1 0x1F NOT PUSH1 0x1F DUP3 ADD AND DUP3 ADD DUP1 PUSH1 0x40 MSTORE POP DUP2 ADD SWAP1 PUSH2 0xD44 SWAP2 SWAP1 PUSH2 0x2012 JUMP JUMPDEST PUSH2 0xD83 JUMPI PUSH1 0x40 MLOAD PUSH32 0x8C379A000000000000000000000000000000000000000000000000000000000 DUP2 MSTORE PUSH1 0x4 ADD PUSH2 0xD7A SWAP1 PUSH2 0x2087 JUMP JUMPDEST PUSH1 0x40 MLOAD DUP1 SWAP2 SUB SWAP1 REVERT JUMPDEST DUP2 PUSH1 0x3 ADD SLOAD PUSH1 0x3 PUSH0 DUP3 DUP3 SLOAD PUSH2 0xD98 SWAP2 SWAP1 PUSH2 0x20FF JUMP JUMPDEST SWAP3 POP POP DUP2 SWAP1 SSTORE POP DUP6 DUP3 PUSH1 0x7 ADD SWAP1 DUP2 PUSH2 0xDB0 SWAP2 SWAP1 PUSH2 0x1E17 JUMP JUMPDEST POP PUSH1 0x1 DUP3 PUSH1 0x6 ADD PUSH0 PUSH2 0x100 EXP DUP2 SLOAD DUP2 PUSH1 0xFF MUL NOT AND SWAP1 DUP4 ISZERO ISZERO MUL OR SWAP1 SSTORE POP CALLER PUSH20 0xFFFFFFFFFFFFFFFFFFFFFFFFFFFFFFFFFFFFFFFF AND PUSH32 0x6F53D096325462183640905BC09EFCB9435B4F84D34BD77E9D1FF2583392506D DUP4 PUSH1 0x1 ADD SLOAD DUP5 PUSH1 0x3 ADD SLOAD DUP10 PUSH1 0x40 MLOAD PUSH2 0xE1F SWAP4 SWAP3 SWAP2 SWAP1 PUSH2 0x2132 JUMP JUMPDEST PUSH1 0x40 MLOAD DUP1 SWAP2 SUB SWAP1 LOG2 POP POP POP DUP1 DUP1 PUSH2 0xE35 SWAP1 PUSH2 0x23A3 JUMP JUMPDEST SWAP2 POP POP PUSH2 0xA3F JUMP JUMPDEST POP POP POP JUMP JUMPDEST PUSH1 0x5 SLOAD DUP2 JUMP JUMPDEST PUSH1 0x6 PUSH0 SWAP1 SLOAD SWAP1 PUSH2 0x100 EXP SWAP1 DIV PUSH1 0xFF AND DUP2 JUMP JUMPDEST PUSH0 DUP1 SLOAD SWAP1 PUSH2 0x100 EXP SWAP1 DIV PUSH20 0xFFFFFFFFFFFFFFFFFFFFFFFFFFFFFFFFFFFFFFFF AND DUP2 JUMP JUMPDEST PUSH1 0x1 PUSH0 SWAP1 SLOAD SWAP1 PUSH2 0x100 EXP SWAP1 DIV PUSH20 0xFFFFFFFFFFFFFFFFFFFFFFFFFFFFFFFFFFFFFFFF AND DUP2 JUMP JUMPDEST PUSH1 0x2 SLOAD DUP2 JUMP JUMPDEST PUSH1 0x60 PUSH0 PUSH1 0x7 PUSH0 DUP5 PUSH20 0xFFFFFFFFFFFFFFFFFFFFFFFFFFFFFFFFFFFFFFFF AND PUSH20 0xFFFFFFFFFFFFFFFFFFFFFFFFFFFFFFFFFFFFFFFF AND DUP2 MSTORE PUSH1 0x20 ADD SWAP1 DUP2 MSTORE PUSH1 0x20 ADD PUSH0 KECCAK256 DUP1 SLOAD SWAP1 POP GT PUSH2 0xF2C JUMPI PUSH1 0x40 MLOAD PUSH32 0x8C379A000000000000000000000000000000000000000000000000000000000 DUP2 MSTORE PUSH1 0x4 ADD PUSH2 0xF23 SWAP1 PUSH2 0x2415 JUMP JUMPDEST PUSH1 0x40 MLOAD DUP1 SWAP2 SUB SWAP1 REVERT JUMPDEST PUSH1 0x7 PUSH0 DUP4 PUSH20 0xFFFFFFFFFFFFFFFFFFFFFFFFFFFFFFFFFFFFFFFF AND PUSH20 0xFFFFFFFFFFFFFFFFFFFFFFFFFFFFFFFFFFFFFFFF AND DUP2 MSTORE PUSH1 0x20 ADD SWAP1 DUP2 MSTORE PUSH1 0x20 ADD PUSH0 KECCAK256 DUP1 SLOAD DUP1 PUSH1 0x20 MUL PUSH1 0x20 ADD PUSH1 0x40 MLOAD SWAP1 DUP2 ADD PUSH1 0x40 MSTORE DUP1 SWAP3 SWAP2 SWAP1 DUP2 DUP2 MSTORE PUSH1 0x20 ADD PUSH0 SWAP1 JUMPDEST DUP3 DUP3 LT ISZERO PUSH2 0x11BA JUMPI DUP4 DUP3 SWAP1 PUSH0 MSTORE PUSH1 0x20 PUSH0 KECCAK256 SWAP1 PUSH1 0x8 MUL ADD PUSH1 0x40 MLOAD DUP1 PUSH2 0x100 ADD PUSH1 0x40 MSTORE SWAP1 DUP2 PUSH0 DUP3 ADD PUSH0 SWAP1 SLOAD SWAP1 PUSH2 0x100 EXP SWAP1 DIV PUSH20 0xFFFFFFFFFFFFFFFFFFFFFFFFFFFFFFFFFFFFFFFF AND PUSH20 0xFFFFFFFFFFFFFFFFFFFFFFFFFFFFFFFFFFFFFFFF AND PUSH20 0xFFFFFFFFFFFFFFFFFFFFFFFFFFFFFFFFFFFFFFFF AND DUP2 MSTORE PUSH1 0x20 ADD PUSH1 0x1 DUP3 ADD SLOAD DUP2 MSTORE PUSH1 0x20 ADD PUSH1 0x2 DUP3 ADD PUSH0 SWAP1 SLOAD SWAP1 PUSH2 0x100 EXP SWAP1 DIV PUSH20 0xFFFFFFFFFFFFFFFFFFFFFFFFFFFFFFFFFFFFFFFF AND PUSH20 0xFFFFFFFFFFFFFFFFFFFFFFFFFFFFFFFFFFFFFFFF AND PUSH20 0xFFFFFFFFFFFFFFFFFFFFFFFFFFFFFFFFFFFFFFFF AND DUP2 MSTORE PUSH1 0x20 ADD PUSH1 0x3 DUP3 ADD SLOAD DUP2 MSTORE PUSH1 0x20 ADD PUSH1 0x4 DUP3 ADD SLOAD DUP2 MSTORE PUSH1 0x20 ADD PUSH1 0x5 DUP3 ADD DUP1 SLOAD PUSH2 0x1081 SWAP1 PUSH2 0x1A2A JUMP JUMPDEST DUP1 PUSH1 0x1F ADD PUSH1 0x20 DUP1 SWAP2 DIV MUL PUSH1 0x20 ADD PUSH1 0x40 MLOAD SWAP1 DUP2 ADD PUSH1 0x40 MSTORE DUP1 SWAP3 SWAP2 SWAP1 DUP2 DUP2 MSTORE PUSH1 0x20 ADD DUP3 DUP1 SLOAD PUSH2 0x10AD SWAP1 PUSH2 0x1A2A JUMP JUMPDEST DUP1 ISZERO PUSH2 0x10F8 JUMPI DUP1 PUSH1 0x1F LT PUSH2 0x10CF JUMPI PUSH2 0x100 DUP1 DUP4 SLOAD DIV MUL DUP4 MSTORE SWAP2 PUSH1 0x20 ADD SWAP2 PUSH2 0x10F8 JUMP JUMPDEST DUP3 ADD SWAP2 SWAP1 PUSH0 MSTORE PUSH1 0x20 PUSH0 KECCAK256 SWAP1 JUMPDEST DUP2 SLOAD DUP2 MSTORE SWAP1 PUSH1 0x1 ADD SWAP1 PUSH1 0x20 ADD DUP1 DUP4 GT PUSH2 0x10DB JUMPI DUP3 SWAP1 SUB PUSH1 0x1F AND DUP3 ADD SWAP2 JUMPDEST POP POP POP POP POP DUP2 MSTORE PUSH1 0x20 ADD PUSH1 0x6 DUP3 ADD PUSH0 SWAP1 SLOAD SWAP1 PUSH2 0x100 EXP SWAP1 DIV PUSH1 0xFF AND ISZERO ISZERO ISZERO ISZERO DUP2 MSTORE PUSH1 0x20 ADD PUSH1 0x7 DUP3 ADD DUP1 SLOAD PUSH2 0x112B SWAP1 PUSH2 0x1A2A JUMP JUMPDEST DUP1 PUSH1 0x1F ADD PUSH1 0x20 DUP1 SWAP2 DIV MUL PUSH1 0x20 ADD PUSH1 0x40 MLOAD SWAP1 DUP2 ADD PUSH1 0x40 MSTORE DUP1 SWAP3 SWAP2 SWAP1 DUP2 DUP2 MSTORE PUSH1 0x20 ADD DUP3 DUP1 SLOAD PUSH2 0x1157 SWAP1 PUSH2 0x1A2A JUMP JUMPDEST DUP1 ISZERO PUSH2 0x11A2 JUMPI DUP1 PUSH1 0x1F LT PUSH2 0x1179 JUMPI PUSH2 0x100 DUP1 DUP4 SLOAD DIV MUL DUP4 MSTORE SWAP2 PUSH1 0x20 ADD SWAP2 PUSH2 0x11A2 JUMP JUMPDEST DUP3 ADD SWAP2 SWAP1 PUSH0 MSTORE PUSH1 0x20 PUSH0 KECCAK256 SWAP1 JUMPDEST DUP2 SLOAD DUP2 MSTORE SWAP1 PUSH1 0x1 ADD SWAP1 PUSH1 0x20 ADD DUP1 DUP4 GT PUSH2 0x1185 JUMPI DUP3 SWAP1 SUB PUSH1 0x1F AND DUP3 ADD SWAP2 JUMPDEST POP POP POP POP POP DUP2 MSTORE POP POP DUP2 MSTORE PUSH1 0x20 ADD SWAP1 PUSH1 0x1 ADD SWAP1 PUSH2 0xF88 JUMP JUMPDEST POP POP POP POP SWAP1 POP SWAP2 SWAP1 POP JUMP JUMPDEST PUSH1 0x4 PUSH0 SWAP1 SLOAD SWAP1 PUSH2 0x100 EXP SWAP1 DIV PUSH20 0xFFFFFFFFFFFFFFFFFFFFFFFFFFFFFFFFFFFFFFFF AND DUP2 JUMP JUMPDEST PUSH0 PUSH1 0x40 MLOAD SWAP1 POP SWAP1 JUMP JUMPDEST PUSH0 DUP1 REVERT JUMPDEST PUSH0 DUP1 REVERT JUMPDEST PUSH0 PUSH20 0xFFFFFFFFFFFFFFFFFFFFFFFFFFFFFFFFFFFFFFFF DUP3 AND SWAP1 POP SWAP2 SWAP1 POP JUMP JUMPDEST PUSH0 PUSH2 0x1224 DUP3 PUSH2 0x11FB JUMP JUMPDEST SWAP1 POP SWAP2 SWAP1 POP JUMP JUMPDEST PUSH2 0x1234 DUP2 PUSH2 0x121A JUMP JUMPDEST DUP2 EQ PUSH2 0x123E JUMPI PUSH0 DUP1 REVERT JUMPDEST POP JUMP JUMPDEST PUSH0 DUP2 CALLDATALOAD SWAP1 POP PUSH2 0x124F DUP2 PUSH2 0x122B JUMP JUMPDEST SWAP3 SWAP2 POP POP JUMP JUMPDEST PUSH0 DUP2 SWAP1 POP SWAP2 SWAP1 POP JUMP JUMPDEST PUSH2 0x1267 DUP2 PUSH2 0x1255 JUMP JUMPDEST DUP2 EQ PUSH2 0x1271 JUMPI PUSH0 DUP1 REVERT JUMPDEST POP JUMP JUMPDEST PUSH0 DUP2 CALLDATALOAD SWAP1 POP PUSH2 0x1282 DUP2 PUSH2 0x125E JUMP JUMPDEST SWAP3 SWAP2 POP POP JUMP JUMPDEST PUSH0 DUP1 PUSH1 0x40 DUP4 DUP6 SUB SLT ISZERO PUSH2 0x129E JUMPI PUSH2 0x129D PUSH2 0x11F3 JUMP JUMPDEST JUMPDEST PUSH0 PUSH2 0x12AB DUP6 DUP3 DUP7 ADD PUSH2 0x1241 JUMP JUMPDEST SWAP3 POP POP PUSH1 0x20 PUSH2 0x12BC DUP6 DUP3 DUP7 ADD PUSH2 0x1274 JUMP JUMPDEST SWAP2 POP POP SWAP3 POP SWAP3 SWAP1 POP JUMP JUMPDEST PUSH2 0x12CF DUP2 PUSH2 0x121A JUMP JUMPDEST DUP3 MSTORE POP POP JUMP JUMPDEST PUSH2 0x12DE DUP2 PUSH2 0x1255 JUMP JUMPDEST DUP3 MSTORE POP POP JUMP JUMPDEST PUSH0 DUP2 MLOAD SWAP1 POP SWAP2 SWAP1 POP JUMP JUMPDEST PUSH0 DUP3 DUP3 MSTORE PUSH1 0x20 DUP3 ADD SWAP1 POP SWAP3 SWAP2 POP POP JUMP JUMPDEST DUP3 DUP2 DUP4 MCOPY PUSH0 DUP4 DUP4 ADD MSTORE POP POP POP JUMP JUMPDEST PUSH0 PUSH1 0x1F NOT PUSH1 0x1F DUP4 ADD AND SWAP1 POP SWAP2 SWAP1 POP JUMP JUMPDEST PUSH0 PUSH2 0x1326 DUP3 PUSH2 0x12E4 JUMP JUMPDEST PUSH2 0x1330 DUP2 DUP6 PUSH2 0x12EE JUMP JUMPDEST SWAP4 POP PUSH2 0x1340 DUP2 DUP6 PUSH1 0x20 DUP7 ADD PUSH2 0x12FE JUMP JUMPDEST PUSH2 0x1349 DUP2 PUSH2 0x130C JUMP JUMPDEST DUP5 ADD SWAP2 POP POP SWAP3 SWAP2 POP POP JUMP JUMPDEST PUSH0 DUP2 ISZERO ISZERO SWAP1 POP SWAP2 SWAP1 POP JUMP JUMPDEST PUSH2 0x1368 DUP2 PUSH2 0x1354 JUMP JUMPDEST DUP3 MSTORE POP POP JUMP JUMPDEST PUSH0 PUSH2 0x100 DUP3 ADD SWAP1 POP PUSH2 0x1382 PUSH0 DUP4 ADD DUP12 PUSH2 0x12C6 JUMP JUMPDEST PUSH2 0x138F PUSH1 0x20 DUP4 ADD DUP11 PUSH2 0x12D5 JUMP JUMPDEST PUSH2 0x139C PUSH1 0x40 DUP4 ADD DUP10 PUSH2 0x12C6 JUMP JUMPDEST PUSH2 0x13A9 PUSH1 0x60 DUP4 ADD DUP9 PUSH2 0x12D5 JUMP JUMPDEST PUSH2 0x13B6 PUSH1 0x80 DUP4 ADD DUP8 PUSH2 0x12D5 JUMP JUMPDEST DUP2 DUP2 SUB PUSH1 0xA0 DUP4 ADD MSTORE PUSH2 0x13C8 DUP2 DUP7 PUSH2 0x131C JUMP JUMPDEST SWAP1 POP PUSH2 0x13D7 PUSH1 0xC0 DUP4 ADD DUP6 PUSH2 0x135F JUMP JUMPDEST DUP2 DUP2 SUB PUSH1 0xE0 DUP4 ADD MSTORE PUSH2 0x13E9 DUP2 DUP5 PUSH2 0x131C JUMP JUMPDEST SWAP1 POP SWAP10 SWAP9 POP POP POP POP POP POP POP POP POP JUMP JUMPDEST PUSH0 PUSH1 0x20 DUP3 ADD SWAP1 POP PUSH2 0x140B PUSH0 DUP4 ADD DUP5 PUSH2 0x12D5 JUMP JUMPDEST SWAP3 SWAP2 POP POP JUMP JUMPDEST PUSH0 DUP1 REVERT JUMPDEST PUSH0 DUP1 REVERT JUMPDEST PUSH32 0x4E487B7100000000000000000000000000000000000000000000000000000000 PUSH0 MSTORE PUSH1 0x41 PUSH1 0x4 MSTORE PUSH1 0x24 PUSH0 REVERT JUMPDEST PUSH2 0x144F DUP3 PUSH2 0x130C JUMP JUMPDEST DUP2 ADD DUP2 DUP2 LT PUSH8 0xFFFFFFFFFFFFFFFF DUP3 GT OR ISZERO PUSH2 0x146E JUMPI PUSH2 0x146D PUSH2 0x1419 JUMP JUMPDEST JUMPDEST DUP1 PUSH1 0x40 MSTORE POP POP POP JUMP JUMPDEST PUSH0 PUSH2 0x1480 PUSH2 0x11EA JUMP JUMPDEST SWAP1 POP PUSH2 0x148C DUP3 DUP3 PUSH2 0x1446 JUMP JUMPDEST SWAP2 SWAP1 POP JUMP JUMPDEST PUSH0 PUSH8 0xFFFFFFFFFFFFFFFF DUP3 GT ISZERO PUSH2 0x14AB JUMPI PUSH2 0x14AA PUSH2 0x1419 JUMP JUMPDEST JUMPDEST PUSH2 0x14B4 DUP3 PUSH2 0x130C JUMP JUMPDEST SWAP1 POP PUSH1 0x20 DUP2 ADD SWAP1 POP SWAP2 SWAP1 POP JUMP JUMPDEST DUP3 DUP2 DUP4 CALLDATACOPY PUSH0 DUP4 DUP4 ADD MSTORE POP POP POP JUMP JUMPDEST PUSH0 PUSH2 0x14E1 PUSH2 0x14DC DUP5 PUSH2 0x1491 JUMP JUMPDEST PUSH2 0x1477 JUMP JUMPDEST SWAP1 POP DUP3 DUP2 MSTORE PUSH1 0x20 DUP2 ADD DUP5 DUP5 DUP5 ADD GT ISZERO PUSH2 0x14FD JUMPI PUSH2 0x14FC PUSH2 0x1415 JUMP JUMPDEST JUMPDEST PUSH2 0x1508 DUP5 DUP3 DUP6 PUSH2 0x14C1 JUMP JUMPDEST POP SWAP4 SWAP3 POP POP POP JUMP JUMPDEST PUSH0 DUP3 PUSH1 0x1F DUP4 ADD SLT PUSH2 0x1524 JUMPI PUSH2 0x1523 PUSH2 0x1411 JUMP JUMPDEST JUMPDEST DUP2 CALLDATALOAD PUSH2 0x1534 DUP5 DUP3 PUSH1 0x20 DUP7 ADD PUSH2 0x14CF JUMP JUMPDEST SWAP2 POP POP SWAP3 SWAP2 POP POP JUMP JUMPDEST PUSH0 DUP1 PUSH0 PUSH1 0x60 DUP5 DUP7 SUB SLT ISZERO PUSH2 0x1554 JUMPI PUSH2 0x1553 PUSH2 0x11F3 JUMP JUMPDEST JUMPDEST PUSH0 DUP5 ADD CALLDATALOAD PUSH8 0xFFFFFFFFFFFFFFFF DUP2 GT ISZERO PUSH2 0x1571 JUMPI PUSH2 0x1570 PUSH2 0x11F7 JUMP JUMPDEST JUMPDEST PUSH2 0x157D DUP7 DUP3 DUP8 ADD PUSH2 0x1510 JUMP JUMPDEST SWAP4 POP POP PUSH1 0x20 PUSH2 0x158E DUP7 DUP3 DUP8 ADD PUSH2 0x1241 JUMP JUMPDEST SWAP3 POP POP PUSH1 0x40 PUSH2 0x159F DUP7 DUP3 DUP8 ADD PUSH2 0x1274 JUMP JUMPDEST SWAP2 POP POP SWAP3 POP SWAP3 POP SWAP3 JUMP JUMPDEST PUSH0 PUSH8 0xFFFFFFFFFFFFFFFF DUP3 GT ISZERO PUSH2 0x15C3 JUMPI PUSH2 0x15C2 PUSH2 0x1419 JUMP JUMPDEST JUMPDEST PUSH1 0x20 DUP3 MUL SWAP1 POP PUSH1 0x20 DUP2 ADD SWAP1 POP SWAP2 SWAP1 POP JUMP JUMPDEST PUSH0 DUP1 REVERT JUMPDEST PUSH0 PUSH1 0xFF DUP3 AND SWAP1 POP SWAP2 SWAP1 POP JUMP JUMPDEST PUSH2 0x15ED DUP2 PUSH2 0x15D8 JUMP JUMPDEST DUP2 EQ PUSH2 0x15F7 JUMPI PUSH0 DUP1 REVERT JUMPDEST POP JUMP JUMPDEST PUSH0 DUP2 CALLDATALOAD SWAP1 POP PUSH2 0x1608 DUP2 PUSH2 0x15E4 JUMP JUMPDEST SWAP3 SWAP2 POP POP JUMP JUMPDEST PUSH0 PUSH2 0x1620 PUSH2 0x161B DUP5 PUSH2 0x15A9 JUMP JUMPDEST PUSH2 0x1477 JUMP JUMPDEST SWAP1 POP DUP1 DUP4 DUP3 MSTORE PUSH1 0x20 DUP3 ADD SWAP1 POP PUSH1 0x20 DUP5 MUL DUP4 ADD DUP6 DUP2 GT ISZERO PUSH2 0x1643 JUMPI PUSH2 0x1642 PUSH2 0x15D4 JUMP JUMPDEST JUMPDEST DUP4 JUMPDEST DUP2 DUP2 LT ISZERO PUSH2 0x166C JUMPI DUP1 PUSH2 0x1658 DUP9 DUP3 PUSH2 0x15FA JUMP JUMPDEST DUP5 MSTORE PUSH1 0x20 DUP5 ADD SWAP4 POP POP PUSH1 0x20 DUP2 ADD SWAP1 POP PUSH2 0x1645 JUMP JUMPDEST POP POP POP SWAP4 SWAP3 POP POP POP JUMP JUMPDEST PUSH0 DUP3 PUSH1 0x1F DUP4 ADD SLT PUSH2 0x168A JUMPI PUSH2 0x1689 PUSH2 0x1411 JUMP JUMPDEST JUMPDEST DUP2 CALLDATALOAD PUSH2 0x169A DUP5 DUP3 PUSH1 0x20 DUP7 ADD PUSH2 0x160E JUMP JUMPDEST SWAP2 POP POP SWAP3 SWAP2 POP POP JUMP JUMPDEST PUSH0 DUP1 PUSH1 0x40 DUP4 DUP6 SUB SLT ISZERO PUSH2 0x16B9 JUMPI PUSH2 0x16B8 PUSH2 0x11F3 JUMP JUMPDEST JUMPDEST PUSH0 DUP4 ADD CALLDATALOAD PUSH8 0xFFFFFFFFFFFFFFFF DUP2 GT ISZERO PUSH2 0x16D6 JUMPI PUSH2 0x16D5 PUSH2 0x11F7 JUMP JUMPDEST JUMPDEST PUSH2 0x16E2 DUP6 DUP3 DUP7 ADD PUSH2 0x1510 JUMP JUMPDEST SWAP3 POP POP PUSH1 0x20 DUP4 ADD CALLDATALOAD PUSH8 0xFFFFFFFFFFFFFFFF DUP2 GT ISZERO PUSH2 0x1703 JUMPI PUSH2 0x1702 PUSH2 0x11F7 JUMP JUMPDEST JUMPDEST PUSH2 0x170F DUP6 DUP3 DUP7 ADD PUSH2 0x1676 JUMP JUMPDEST SWAP2 POP POP SWAP3 POP SWAP3 SWAP1 POP JUMP JUMPDEST PUSH2 0x1722 DUP2 PUSH2 0x15D8 JUMP JUMPDEST DUP3 MSTORE POP POP JUMP JUMPDEST PUSH0 PUSH1 0x20 DUP3 ADD SWAP1 POP PUSH2 0x173B PUSH0 DUP4 ADD DUP5 PUSH2 0x1719 JUMP JUMPDEST SWAP3 SWAP2 POP POP JUMP JUMPDEST PUSH0 DUP2 SWAP1 POP SWAP2 SWAP1 POP JUMP JUMPDEST PUSH0 PUSH2 0x1764 PUSH2 0x175F PUSH2 0x175A DUP5 PUSH2 0x11FB JUMP JUMPDEST PUSH2 0x1741 JUMP JUMPDEST PUSH2 0x11FB JUMP JUMPDEST SWAP1 POP SWAP2 SWAP1 POP JUMP JUMPDEST PUSH0 PUSH2 0x1775 DUP3 PUSH2 0x174A JUMP JUMPDEST SWAP1 POP SWAP2 SWAP1 POP JUMP JUMPDEST PUSH0 PUSH2 0x1786 DUP3 PUSH2 0x176B JUMP JUMPDEST SWAP1 POP SWAP2 SWAP1 POP JUMP JUMPDEST PUSH2 0x1796 DUP2 PUSH2 0x177C JUMP JUMPDEST DUP3 MSTORE POP POP JUMP JUMPDEST PUSH0 PUSH1 0x20 DUP3 ADD SWAP1 POP PUSH2 0x17AF PUSH0 DUP4 ADD DUP5 PUSH2 0x178D JUMP JUMPDEST SWAP3 SWAP2 POP POP JUMP JUMPDEST PUSH0 PUSH1 0x20 DUP3 ADD SWAP1 POP PUSH2 0x17C8 PUSH0 DUP4 ADD DUP5 PUSH2 0x12C6 JUMP JUMPDEST SWAP3 SWAP2 POP POP JUMP JUMPDEST PUSH0 PUSH1 0x20 DUP3 DUP5 SUB SLT ISZERO PUSH2 0x17E3 JUMPI PUSH2 0x17E2 PUSH2 0x11F3 JUMP JUMPDEST JUMPDEST PUSH0 PUSH2 0x17F0 DUP5 DUP3 DUP6 ADD PUSH2 0x1241 JUMP JUMPDEST SWAP2 POP POP SWAP3 SWAP2 POP POP JUMP JUMPDEST PUSH0 DUP2 MLOAD SWAP1 POP SWAP2 SWAP1 POP JUMP JUMPDEST PUSH0 DUP3 DUP3 MSTORE PUSH1 0x20 DUP3 ADD SWAP1 POP SWAP3 SWAP2 POP POP JUMP JUMPDEST PUSH0 DUP2 SWAP1 POP PUSH1 0x20 DUP3 ADD SWAP1 POP SWAP2 SWAP1 POP JUMP JUMPDEST PUSH2 0x182B DUP2 PUSH2 0x121A JUMP JUMPDEST DUP3 MSTORE POP POP JUMP JUMPDEST PUSH2 0x183A DUP2 PUSH2 0x1255 JUMP JUMPDEST DUP3 MSTORE POP POP JUMP JUMPDEST PUSH0 DUP3 DUP3 MSTORE PUSH1 0x20 DUP3 ADD SWAP1 POP SWAP3 SWAP2 POP POP JUMP JUMPDEST PUSH0 PUSH2 0x185A DUP3 PUSH2 0x12E4 JUMP JUMPDEST PUSH2 0x1864 DUP2 DUP6 PUSH2 0x1840 JUMP JUMPDEST SWAP4 POP PUSH2 0x1874 DUP2 DUP6 PUSH1 0x20 DUP7 ADD PUSH2 0x12FE JUMP JUMPDEST PUSH2 0x187D DUP2 PUSH2 0x130C JUMP JUMPDEST DUP5 ADD SWAP2 POP POP SWAP3 SWAP2 POP POP JUMP JUMPDEST PUSH2 0x1891 DUP2 PUSH2 0x1354 JUMP JUMPDEST DUP3 MSTORE POP POP JUMP JUMPDEST PUSH0 PUSH2 0x100 DUP4 ADD PUSH0 DUP4 ADD MLOAD PUSH2 0x18AD PUSH0 DUP7 ADD DUP3 PUSH2 0x1822 JUMP JUMPDEST POP PUSH1 0x20 DUP4 ADD MLOAD PUSH2 0x18C0 PUSH1 0x20 DUP7 ADD DUP3 PUSH2 0x1831 JUMP JUMPDEST POP PUSH1 0x40 DUP4 ADD MLOAD PUSH2 0x18D3 PUSH1 0x40 DUP7 ADD DUP3 PUSH2 0x1822 JUMP JUMPDEST POP PUSH1 0x60 DUP4 ADD MLOAD PUSH2 0x18E6 PUSH1 0x60 DUP7 ADD DUP3 PUSH2 0x1831 JUMP JUMPDEST POP PUSH1 0x80 DUP4 ADD MLOAD PUSH2 0x18F9 PUSH1 0x80 DUP7 ADD DUP3 PUSH2 0x1831 JUMP JUMPDEST POP PUSH1 0xA0 DUP4 ADD MLOAD DUP5 DUP3 SUB PUSH1 0xA0 DUP7 ADD MSTORE PUSH2 0x1911 DUP3 DUP3 PUSH2 0x1850 JUMP JUMPDEST SWAP2 POP POP PUSH1 0xC0 DUP4 ADD MLOAD PUSH2 0x1926 PUSH1 0xC0 DUP7 ADD DUP3 PUSH2 0x1888 JUMP JUMPDEST POP PUSH1 0xE0 DUP4 ADD MLOAD DUP5 DUP3 SUB PUSH1 0xE0 DUP7 ADD MSTORE PUSH2 0x193E DUP3 DUP3 PUSH2 0x1850 JUMP JUMPDEST SWAP2 POP POP DUP1 SWAP2 POP POP SWAP3 SWAP2 POP POP JUMP JUMPDEST PUSH0 PUSH2 0x1956 DUP4 DUP4 PUSH2 0x1897 JUMP JUMPDEST SWAP1 POP SWAP3 SWAP2 POP POP JUMP JUMPDEST PUSH0 PUSH1 0x20 DUP3 ADD SWAP1 POP SWAP2 SWAP1 POP JUMP JUMPDEST PUSH0 PUSH2 0x1974 DUP3 PUSH2 0x17F9 JUMP JUMPDEST PUSH2 0x197E DUP2 DUP6 PUSH2 0x1803 JUMP JUMPDEST SWAP4 POP DUP4 PUSH1 0x20 DUP3 MUL DUP6 ADD PUSH2 0x1990 DUP6 PUSH2 0x1813 JUMP JUMPDEST DUP1 PUSH0 JUMPDEST DUP6 DUP2 LT ISZERO PUSH2 0x19CB JUMPI DUP5 DUP5 SUB DUP10 MSTORE DUP2 MLOAD PUSH2 0x19AC DUP6 DUP3 PUSH2 0x194B JUMP JUMPDEST SWAP5 POP PUSH2 0x19B7 DUP4 PUSH2 0x195E JUMP JUMPDEST SWAP3 POP PUSH1 0x20 DUP11 ADD SWAP10 POP POP PUSH1 0x1 DUP2 ADD SWAP1 POP PUSH2 0x1993 JUMP JUMPDEST POP DUP3 SWAP8 POP DUP8 SWAP6 POP POP POP POP POP POP SWAP3 SWAP2 POP POP JUMP JUMPDEST PUSH0 PUSH1 0x20 DUP3 ADD SWAP1 POP DUP2 DUP2 SUB PUSH0 DUP4 ADD MSTORE PUSH2 0x19F5 DUP2 DUP5 PUSH2 0x196A JUMP JUMPDEST SWAP1 POP SWAP3 SWAP2 POP POP JUMP JUMPDEST PUSH32 0x4E487B7100000000000000000000000000000000000000000000000000000000 PUSH0 MSTORE PUSH1 0x22 PUSH1 0x4 MSTORE PUSH1 0x24 PUSH0 REVERT JUMPDEST PUSH0 PUSH1 0x2 DUP3 DIV SWAP1 POP PUSH1 0x1 DUP3 AND DUP1 PUSH2 0x1A41 JUMPI PUSH1 0x7F DUP3 AND SWAP2 POP JUMPDEST PUSH1 0x20 DUP3 LT DUP2 SUB PUSH2 0x1A54 JUMPI PUSH2 0x1A53 PUSH2 0x19FD JUMP JUMPDEST JUMPDEST POP SWAP2 SWAP1 POP JUMP JUMPDEST PUSH32 0x426F72726F77696E67206C696D69742072656163686564000000000000000000 PUSH0 DUP3 ADD MSTORE POP JUMP JUMPDEST PUSH0 PUSH2 0x1A8E PUSH1 0x17 DUP4 PUSH2 0x12EE JUMP JUMPDEST SWAP2 POP PUSH2 0x1A99 DUP3 PUSH2 0x1A5A JUMP JUMPDEST PUSH1 0x20 DUP3 ADD SWAP1 POP SWAP2 SWAP1 POP JUMP JUMPDEST PUSH0 PUSH1 0x20 DUP3 ADD SWAP1 POP DUP2 DUP2 SUB PUSH0 DUP4 ADD MSTORE PUSH2 0x1ABB DUP2 PUSH2 0x1A82 JUMP JUMPDEST SWAP1 POP SWAP2 SWAP1 POP JUMP JUMPDEST PUSH32 0x436F6C6C61746572616C20616D6F756E74206D75737420626520677265617465 PUSH0 DUP3 ADD MSTORE PUSH32 0x72207468616E2030000000000000000000000000000000000000000000000000 PUSH1 0x20 DUP3 ADD MSTORE POP JUMP JUMPDEST PUSH0 PUSH2 0x1B1C PUSH1 0x28 DUP4 PUSH2 0x12EE JUMP JUMPDEST SWAP2 POP PUSH2 0x1B27 DUP3 PUSH2 0x1AC2 JUMP JUMPDEST PUSH1 0x40 DUP3 ADD SWAP1 POP SWAP2 SWAP1 POP JUMP JUMPDEST PUSH0 PUSH1 0x20 DUP3 ADD SWAP1 POP DUP2 DUP2 SUB PUSH0 DUP4 ADD MSTORE PUSH2 0x1B49 DUP2 PUSH2 0x1B10 JUMP JUMPDEST SWAP1 POP SWAP2 SWAP1 POP JUMP JUMPDEST PUSH32 0x4E487B7100000000000000000000000000000000000000000000000000000000 PUSH0 MSTORE PUSH1 0x11 PUSH1 0x4 MSTORE PUSH1 0x24 PUSH0 REVERT JUMPDEST PUSH0 PUSH2 0x1B87 DUP3 PUSH2 0x1255 JUMP JUMPDEST SWAP2 POP PUSH2 0x1B92 DUP4 PUSH2 0x1255 JUMP JUMPDEST SWAP3 POP DUP3 DUP3 MUL PUSH2 0x1BA0 DUP2 PUSH2 0x1255 JUMP JUMPDEST SWAP2 POP DUP3 DUP3 DIV DUP5 EQ DUP4 ISZERO OR PUSH2 0x1BB7 JUMPI PUSH2 0x1BB6 PUSH2 0x1B50 JUMP JUMPDEST JUMPDEST POP SWAP3 SWAP2 POP POP JUMP JUMPDEST PUSH32 0x4E487B7100000000000000000000000000000000000000000000000000000000 PUSH0 MSTORE PUSH1 0x12 PUSH1 0x4 MSTORE PUSH1 0x24 PUSH0 REVERT JUMPDEST PUSH0 PUSH2 0x1BF5 DUP3 PUSH2 0x1255 JUMP JUMPDEST SWAP2 POP PUSH2 0x1C00 DUP4 PUSH2 0x1255 JUMP JUMPDEST SWAP3 POP DUP3 PUSH2 0x1C10 JUMPI PUSH2 0x1C0F PUSH2 0x1BBE JUMP JUMPDEST JUMPDEST DUP3 DUP3 DIV SWAP1 POP SWAP3 SWAP2 POP POP JUMP JUMPDEST PUSH32 0x4E6F7420656E6F75676820524D4220696E20636F6E7472616374000000000000 PUSH0 DUP3 ADD MSTORE POP JUMP JUMPDEST PUSH0 PUSH2 0x1C4F PUSH1 0x1A DUP4 PUSH2 0x12EE JUMP JUMPDEST SWAP2 POP PUSH2 0x1C5A DUP3 PUSH2 0x1C1B JUMP JUMPDEST PUSH1 0x20 DUP3 ADD SWAP1 POP SWAP2 SWAP1 POP JUMP JUMPDEST PUSH0 PUSH1 0x20 DUP3 ADD SWAP1 POP DUP2 DUP2 SUB PUSH0 DUP4 ADD MSTORE PUSH2 0x1C7C DUP2 PUSH2 0x1C43 JUMP JUMPDEST SWAP1 POP SWAP2 SWAP1 POP JUMP JUMPDEST PUSH0 DUP2 SWAP1 POP DUP2 PUSH0 MSTORE PUSH1 0x20 PUSH0 KECCAK256 SWAP1 POP SWAP2 SWAP1 POP JUMP JUMPDEST PUSH0 PUSH1 0x20 PUSH1 0x1F DUP4 ADD DIV SWAP1 POP SWAP2 SWAP1 POP JUMP JUMPDEST PUSH0 DUP3 DUP3 SHL SWAP1 POP SWAP3 SWAP2 POP POP JUMP JUMPDEST PUSH0 PUSH1 0x8 DUP4 MUL PUSH2 0x1CDF PUSH32 0xFFFFFFFFFFFFFFFFFFFFFFFFFFFFFFFFFFFFFFFFFFFFFFFFFFFFFFFFFFFFFFFF DUP3 PUSH2 0x1CA4 JUMP JUMPDEST PUSH2 0x1CE9 DUP7 DUP4 PUSH2 0x1CA4 JUMP JUMPDEST SWAP6 POP DUP1 NOT DUP5 AND SWAP4 POP DUP1 DUP7 AND DUP5 OR SWAP3 POP POP POP SWAP4 SWAP3 POP POP POP JUMP JUMPDEST PUSH0 PUSH2 0x1D1B PUSH2 0x1D16 PUSH2 0x1D11 DUP5 PUSH2 0x1255 JUMP JUMPDEST PUSH2 0x1741 JUMP JUMPDEST PUSH2 0x1255 JUMP JUMPDEST SWAP1 POP SWAP2 SWAP1 POP JUMP JUMPDEST PUSH0 DUP2 SWAP1 POP SWAP2 SWAP1 POP JUMP JUMPDEST PUSH2 0x1D34 DUP4 PUSH2 0x1D01 JUMP JUMPDEST PUSH2 0x1D48 PUSH2 0x1D40 DUP3 PUSH2 0x1D22 JUMP JUMPDEST DUP5 DUP5 SLOAD PUSH2 0x1CB0 JUMP JUMPDEST DUP3 SSTORE POP POP POP POP JUMP JUMPDEST PUSH0 SWAP1 JUMP JUMPDEST PUSH2 0x1D5C PUSH2 0x1D50 JUMP JUMPDEST PUSH2 0x1D67 DUP2 DUP5 DUP5 PUSH2 0x1D2B JUMP JUMPDEST POP POP POP JUMP JUMPDEST JUMPDEST DUP2 DUP2 LT ISZERO PUSH2 0x1D8A JUMPI PUSH2 0x1D7F PUSH0 DUP3 PUSH2 0x1D54 JUMP JUMPDEST PUSH1 0x1 DUP2 ADD SWAP1 POP PUSH2 0x1D6D JUMP JUMPDEST POP POP JUMP JUMPDEST PUSH1 0x1F DUP3 GT ISZERO PUSH2 0x1DCF JUMPI PUSH2 0x1DA0 DUP2 PUSH2 0x1C83 JUMP JUMPDEST PUSH2 0x1DA9 DUP5 PUSH2 0x1C95 JUMP JUMPDEST DUP2 ADD PUSH1 0x20 DUP6 LT ISZERO PUSH2 0x1DB8 JUMPI DUP2 SWAP1 POP JUMPDEST PUSH2 0x1DCC PUSH2 0x1DC4 DUP6 PUSH2 0x1C95 JUMP JUMPDEST DUP4 ADD DUP3 PUSH2 0x1D6C JUMP JUMPDEST POP POP JUMPDEST POP POP POP JUMP JUMPDEST PUSH0 DUP3 DUP3 SHR SWAP1 POP SWAP3 SWAP2 POP POP JUMP JUMPDEST PUSH0 PUSH2 0x1DEF PUSH0 NOT DUP5 PUSH1 0x8 MUL PUSH2 0x1DD4 JUMP JUMPDEST NOT DUP1 DUP4 AND SWAP2 POP POP SWAP3 SWAP2 POP POP JUMP JUMPDEST PUSH0 PUSH2 0x1E07 DUP4 DUP4 PUSH2 0x1DE0 JUMP JUMPDEST SWAP2 POP DUP3 PUSH1 0x2 MUL DUP3 OR SWAP1 POP SWAP3 SWAP2 POP POP JUMP JUMPDEST PUSH2 0x1E20 DUP3 PUSH2 0x12E4 JUMP JUMPDEST PUSH8 0xFFFFFFFFFFFFFFFF DUP2 GT ISZERO PUSH2 0x1E39 JUMPI PUSH2 0x1E38 PUSH2 0x1419 JUMP JUMPDEST JUMPDEST PUSH2 0x1E43 DUP3 SLOAD PUSH2 0x1A2A JUMP JUMPDEST PUSH2 0x1E4E DUP3 DUP3 DUP6 PUSH2 0x1D8E JUMP JUMPDEST PUSH0 PUSH1 0x20 SWAP1 POP PUSH1 0x1F DUP4 GT PUSH1 0x1 DUP2 EQ PUSH2 0x1E7F JUMPI PUSH0 DUP5 ISZERO PUSH2 0x1E6D JUMPI DUP3 DUP8 ADD MLOAD SWAP1 POP JUMPDEST PUSH2 0x1E77 DUP6 DUP3 PUSH2 0x1DFC JUMP JUMPDEST DUP7 SSTORE POP PUSH2 0x1EDE JUMP JUMPDEST PUSH1 0x1F NOT DUP5 AND PUSH2 0x1E8D DUP7 PUSH2 0x1C83 JUMP JUMPDEST PUSH0 JUMPDEST DUP3 DUP2 LT ISZERO PUSH2 0x1EB4 JUMPI DUP5 DUP10 ADD MLOAD DUP3 SSTORE PUSH1 0x1 DUP3 ADD SWAP2 POP PUSH1 0x20 DUP6 ADD SWAP5 POP PUSH1 0x20 DUP2 ADD SWAP1 POP PUSH2 0x1E8F JUMP JUMPDEST DUP7 DUP4 LT ISZERO PUSH2 0x1ED1 JUMPI DUP5 DUP10 ADD MLOAD PUSH2 0x1ECD PUSH1 0x1F DUP10 AND DUP3 PUSH2 0x1DE0 JUMP JUMPDEST DUP4 SSTORE POP JUMPDEST PUSH1 0x1 PUSH1 0x2 DUP9 MUL ADD DUP9 SSTORE POP POP POP JUMPDEST POP POP POP POP POP POP JUMP JUMPDEST PUSH0 DUP2 MLOAD SWAP1 POP PUSH2 0x1EF4 DUP2 PUSH2 0x125E JUMP JUMPDEST SWAP3 SWAP2 POP POP JUMP JUMPDEST PUSH0 PUSH1 0x20 DUP3 DUP5 SUB SLT ISZERO PUSH2 0x1F0F JUMPI PUSH2 0x1F0E PUSH2 0x11F3 JUMP JUMPDEST JUMPDEST PUSH0 PUSH2 0x1F1C DUP5 DUP3 DUP6 ADD PUSH2 0x1EE6 JUMP JUMPDEST SWAP2 POP POP SWAP3 SWAP2 POP POP JUMP JUMPDEST PUSH32 0x796F75206E6F74206861766520656E6F75676820746F6B656E20746F20646570 PUSH0 DUP3 ADD MSTORE PUSH32 0x6F73697400000000000000000000000000000000000000000000000000000000 PUSH1 0x20 DUP3 ADD MSTORE POP JUMP JUMPDEST PUSH0 PUSH2 0x1F7F PUSH1 0x24 DUP4 PUSH2 0x12EE JUMP JUMPDEST SWAP2 POP PUSH2 0x1F8A DUP3 PUSH2 0x1F25 JUMP JUMPDEST PUSH1 0x40 DUP3 ADD SWAP1 POP SWAP2 SWAP1 POP JUMP JUMPDEST PUSH0 PUSH1 0x20 DUP3 ADD SWAP1 POP DUP2 DUP2 SUB PUSH0 DUP4 ADD MSTORE PUSH2 0x1FAC DUP2 PUSH2 0x1F73 JUMP JUMPDEST SWAP1 POP SWAP2 SWAP1 POP JUMP JUMPDEST PUSH0 PUSH1 0x60 DUP3 ADD SWAP1 POP PUSH2 0x1FC6 PUSH0 DUP4 ADD DUP7 PUSH2 0x12C6 JUMP JUMPDEST PUSH2 0x1FD3 PUSH1 0x20 DUP4 ADD DUP6 PUSH2 0x12C6 JUMP JUMPDEST PUSH2 0x1FE0 PUSH1 0x40 DUP4 ADD DUP5 PUSH2 0x12D5 JUMP JUMPDEST SWAP5 SWAP4 POP POP POP POP JUMP JUMPDEST PUSH2 0x1FF1 DUP2 PUSH2 0x1354 JUMP JUMPDEST DUP2 EQ PUSH2 0x1FFB JUMPI PUSH0 DUP1 REVERT JUMPDEST POP JUMP JUMPDEST PUSH0 DUP2 MLOAD SWAP1 POP PUSH2 0x200C DUP2 PUSH2 0x1FE8 JUMP JUMPDEST SWAP3 SWAP2 POP POP JUMP JUMPDEST PUSH0 PUSH1 0x20 DUP3 DUP5 SUB SLT ISZERO PUSH2 0x2027 JUMPI PUSH2 0x2026 PUSH2 0x11F3 JUMP JUMPDEST JUMPDEST PUSH0 PUSH2 0x2034 DUP5 DUP3 DUP6 ADD PUSH2 0x1FFE JUMP JUMPDEST SWAP2 POP POP SWAP3 SWAP2 POP POP JUMP JUMPDEST PUSH32 0x436F6C6C61746572616C207472616E73666572206661696C6564000000000000 PUSH0 DUP3 ADD MSTORE POP JUMP JUMPDEST PUSH0 PUSH2 0x2071 PUSH1 0x1A DUP4 PUSH2 0x12EE JUMP JUMPDEST SWAP2 POP PUSH2 0x207C DUP3 PUSH2 0x203D JUMP JUMPDEST PUSH1 0x20 DUP3 ADD SWAP1 POP SWAP2 SWAP1 POP JUMP JUMPDEST PUSH0 PUSH1 0x20 DUP3 ADD SWAP1 POP DUP2 DUP2 SUB PUSH0 DUP4 ADD MSTORE PUSH2 0x209E DUP2 PUSH2 0x2065 JUMP JUMPDEST SWAP1 POP SWAP2 SWAP1 POP JUMP JUMPDEST PUSH0 PUSH2 0x20AF DUP3 PUSH2 0x1255 JUMP JUMPDEST SWAP2 POP PUSH2 0x20BA DUP4 PUSH2 0x1255 JUMP JUMPDEST SWAP3 POP DUP3 DUP3 ADD SWAP1 POP DUP1 DUP3 GT ISZERO PUSH2 0x20D2 JUMPI PUSH2 0x20D1 PUSH2 0x1B50 JUMP JUMPDEST JUMPDEST SWAP3 SWAP2 POP POP JUMP JUMPDEST PUSH0 PUSH1 0x40 DUP3 ADD SWAP1 POP PUSH2 0x20EB PUSH0 DUP4 ADD DUP6 PUSH2 0x12C6 JUMP JUMPDEST PUSH2 0x20F8 PUSH1 0x20 DUP4 ADD DUP5 PUSH2 0x12D5 JUMP JUMPDEST SWAP4 SWAP3 POP POP POP JUMP JUMPDEST PUSH0 PUSH2 0x2109 DUP3 PUSH2 0x1255 JUMP JUMPDEST SWAP2 POP PUSH2 0x2114 DUP4 PUSH2 0x1255 JUMP JUMPDEST SWAP3 POP DUP3 DUP3 SUB SWAP1 POP DUP2 DUP2 GT ISZERO PUSH2 0x212C JUMPI PUSH2 0x212B PUSH2 0x1B50 JUMP JUMPDEST JUMPDEST SWAP3 SWAP2 POP POP JUMP JUMPDEST PUSH0 PUSH1 0x60 DUP3 ADD SWAP1 POP PUSH2 0x2145 PUSH0 DUP4 ADD DUP7 PUSH2 0x12D5 JUMP JUMPDEST PUSH2 0x2152 PUSH1 0x20 DUP4 ADD DUP6 PUSH2 0x12D5 JUMP JUMPDEST DUP2 DUP2 SUB PUSH1 0x40 DUP4 ADD MSTORE PUSH2 0x2164 DUP2 DUP5 PUSH2 0x131C JUMP JUMPDEST SWAP1 POP SWAP5 SWAP4 POP POP POP POP JUMP JUMPDEST PUSH32 0x4E6F206C6F616E732073656C6563746564000000000000000000000000000000 PUSH0 DUP3 ADD MSTORE POP JUMP JUMPDEST PUSH0 PUSH2 0x21A2 PUSH1 0x11 DUP4 PUSH2 0x12EE JUMP JUMPDEST SWAP2 POP PUSH2 0x21AD DUP3 PUSH2 0x216E JUMP JUMPDEST PUSH1 0x20 DUP3 ADD SWAP1 POP SWAP2 SWAP1 POP JUMP JUMPDEST PUSH0 PUSH1 0x20 DUP3 ADD SWAP1 POP DUP2 DUP2 SUB PUSH0 DUP4 ADD MSTORE PUSH2 0x21CF DUP2 PUSH2 0x2196 JUMP JUMPDEST SWAP1 POP SWAP2 SWAP1 POP JUMP JUMPDEST PUSH32 0x546F6F206D616E79206C6F616E732073656C6563746564000000000000000000 PUSH0 DUP3 ADD MSTORE POP JUMP JUMPDEST PUSH0 PUSH2 0x220A PUSH1 0x17 DUP4 PUSH2 0x12EE JUMP JUMPDEST SWAP2 POP PUSH2 0x2215 DUP3 PUSH2 0x21D6 JUMP JUMPDEST PUSH1 0x20 DUP3 ADD SWAP1 POP SWAP2 SWAP1 POP JUMP JUMPDEST PUSH0 PUSH1 0x20 DUP3 ADD SWAP1 POP DUP2 DUP2 SUB PUSH0 DUP4 ADD MSTORE PUSH2 0x2237 DUP2 PUSH2 0x21FE JUMP JUMPDEST SWAP1 POP SWAP2 SWAP1 POP JUMP JUMPDEST PUSH32 0x4E487B7100000000000000000000000000000000000000000000000000000000 PUSH0 MSTORE PUSH1 0x32 PUSH1 0x4 MSTORE PUSH1 0x24 PUSH0 REVERT JUMPDEST PUSH32 0x496E76616C6964206C6F616E20696E6465780000000000000000000000000000 PUSH0 DUP3 ADD MSTORE POP JUMP JUMPDEST PUSH0 PUSH2 0x229F PUSH1 0x12 DUP4 PUSH2 0x12EE JUMP JUMPDEST SWAP2 POP PUSH2 0x22AA DUP3 PUSH2 0x226B JUMP JUMPDEST PUSH1 0x20 DUP3 ADD SWAP1 POP SWAP2 SWAP1 POP JUMP JUMPDEST PUSH0 PUSH1 0x20 DUP3 ADD SWAP1 POP DUP2 DUP2 SUB PUSH0 DUP4 ADD MSTORE PUSH2 0x22CC DUP2 PUSH2 0x2293 JUMP JUMPDEST SWAP1 POP SWAP2 SWAP1 POP JUMP JUMPDEST PUSH32 0x4C6F616E20616C72656164792072657061696400000000000000000000000000 PUSH0 DUP3 ADD MSTORE POP JUMP JUMPDEST PUSH0 PUSH2 0x2307 PUSH1 0x13 DUP4 PUSH2 0x12EE JUMP JUMPDEST SWAP2 POP PUSH2 0x2312 DUP3 PUSH2 0x22D3 JUMP JUMPDEST PUSH1 0x20 DUP3 ADD SWAP1 POP SWAP2 SWAP1 POP JUMP JUMPDEST PUSH0 PUSH1 0x20 DUP3 ADD SWAP1 POP DUP2 DUP2 SUB PUSH0 DUP4 ADD MSTORE PUSH2 0x2334 DUP2 PUSH2 0x22FB JUMP JUMPDEST SWAP1 POP SWAP2 SWAP1 POP JUMP JUMPDEST PUSH32 0x4C6F616E2072657061796D656E74206661696C65640000000000000000000000 PUSH0 DUP3 ADD MSTORE POP JUMP JUMPDEST PUSH0 PUSH2 0x236F PUSH1 0x15 DUP4 PUSH2 0x12EE JUMP JUMPDEST SWAP2 POP PUSH2 0x237A DUP3 PUSH2 0x233B JUMP JUMPDEST PUSH1 0x20 DUP3 ADD SWAP1 POP SWAP2 SWAP1 POP JUMP JUMPDEST PUSH0 PUSH1 0x20 DUP3 ADD SWAP1 POP DUP2 DUP2 SUB PUSH0 DUP4 ADD MSTORE PUSH2 0x239C DUP2 PUSH2 0x2363 JUMP JUMPDEST SWAP1 POP SWAP2 SWAP1 POP JUMP JUMPDEST PUSH0 PUSH2 0x23AD DUP3 PUSH2 0x15D8 JUMP JUMPDEST SWAP2 POP PUSH1 0xFF DUP3 SUB PUSH2 0x23C0 JUMPI PUSH2 0x23BF PUSH2 0x1B50 JUMP JUMPDEST JUMPDEST PUSH1 0x1 DUP3 ADD SWAP1 POP SWAP2 SWAP1 POP JUMP JUMPDEST PUSH32 0x4E6F206C6F616E7320666F756E6420666F722075736572000000000000000000 PUSH0 DUP3 ADD MSTORE POP JUMP JUMPDEST PUSH0 PUSH2 0x23FF PUSH1 0x17 DUP4 PUSH2 0x12EE JUMP JUMPDEST SWAP2 POP PUSH2 0x240A DUP3 PUSH2 0x23CB JUMP JUMPDEST PUSH1 0x20 DUP3 ADD SWAP1 POP SWAP2 SWAP1 POP JUMP JUMPDEST PUSH0 PUSH1 0x20 DUP3 ADD SWAP1 POP DUP2 DUP2 SUB PUSH0 DUP4 ADD MSTORE PUSH2 0x242C DUP2 PUSH2 0x23F3 JUMP JUMPDEST SWAP1 POP SWAP2 SWAP1 POP JUMP INVALID LOG2 PUSH5 0x6970667358 0x22 SLT KECCAK256 TSTORE CALLVALUE XOR BYTE 0xC8 SWAP3 ADDMOD BLOCKHASH 0xC1 PUSH4 0x23C78B92 PUSH18 0x388C7629C4764C06FEB9F034130E6709E664 PUSH20 0x6F6C634300081A00330000000000000000000000 "
		},
		"gasEstimates": {
			"creation": {
				"codeDepositCost": "1864200",
				"executionCost": "infinite",
				"totalCost": "infinite"
			},
			"external": {
				"COLLATERAL_RATE()": "2514",
				"MAXLOANNUM()": "2466",
				"admin()": "2618",
				"collateralStatus(address,uint256)": "infinite",
				"depositCollateral(string,address,uint256)": "infinite",
				"getLoanDetails(address)": "infinite",
				"goldAmount()": "2448",
				"rmb()": "infinite",
				"rmbAddress()": "2552",
				"rmbAmount()": "2491",
				"withdrawCollateral(string,uint8[])": "infinite"
			}
		},
		"methodIdentifiers": {
			"COLLATERAL_RATE()": "78a14d0e",
			"MAXLOANNUM()": "8c310492",
			"admin()": "f851a440",
			"collateralStatus(address,uint256)": "046d828e",
			"depositCollateral(string,address,uint256)": "2dd97930",
			"getLoanDetails(address)": "e8a7da8e",
			"goldAmount()": "08b1b533",
			"rmb()": "9795f6d5",
			"rmbAddress()": "afd2c74e",
			"rmbAmount()": "c8843bc7",
			"withdrawCollateral(string,uint8[])": "6f6cdafb"
		}
	},
	"abi": [
		{
			"inputs": [
				{
					"internalType": "address",
					"name": "_rmb",
					"type": "address"
				}
			],
			"stateMutability": "nonpayable",
			"type": "constructor"
		},
		{
			"anonymous": false,
			"inputs": [
				{
					"indexed": true,
					"internalType": "address",
					"name": "user",
					"type": "address"
				},
				{
					"indexed": false,
					"internalType": "uint256",
					"name": "loanAmount",
					"type": "uint256"
				},
				{
					"indexed": false,
					"internalType": "uint256",
					"name": "collateralAmount",
					"type": "uint256"
				},
				{
					"indexed": false,
					"internalType": "string",
					"name": "loanTime",
					"type": "string"
				}
			],
			"name": "CollateralDeposited",
			"type": "event"
		},
		{
			"anonymous": false,
			"inputs": [
				{
					"indexed": true,
					"internalType": "address",
					"name": "user",
					"type": "address"
				},
				{
					"indexed": false,
					"internalType": "uint256",
					"name": "loanAmount",
					"type": "uint256"
				},
				{
					"indexed": false,
					"internalType": "uint256",
					"name": "collateralAmount",
					"type": "uint256"
				},
				{
					"indexed": false,
					"internalType": "string",
					"name": "repayTime",
					"type": "string"
				}
			],
			"name": "CollateralWithdrawn",
			"type": "event"
		},
		{
			"inputs": [],
			"name": "COLLATERAL_RATE",
			"outputs": [
				{
					"internalType": "uint256",
					"name": "",
					"type": "uint256"
				}
			],
			"stateMutability": "view",
			"type": "function"
		},
		{
			"inputs": [],
			"name": "MAXLOANNUM",
			"outputs": [
				{
					"internalType": "uint8",
					"name": "",
					"type": "uint8"
				}
			],
			"stateMutability": "view",
			"type": "function"
		},
		{
			"inputs": [],
			"name": "admin",
			"outputs": [
				{
					"internalType": "address",
					"name": "",
					"type": "address"
				}
			],
			"stateMutability": "view",
			"type": "function"
		},
		{
			"inputs": [
				{
					"internalType": "address",
					"name": "",
					"type": "address"
				},
				{
					"internalType": "uint256",
					"name": "",
					"type": "uint256"
				}
			],
			"name": "collateralStatus",
			"outputs": [
				{
					"internalType": "address",
					"name": "loanTokenAddress",
					"type": "address"
				},
				{
					"internalType": "uint256",
					"name": "loanAmount",
					"type": "uint256"
				},
				{
					"internalType": "address",
					"name": "collateralTokenAddress",
					"type": "address"
				},
				{
					"internalType": "uint256",
					"name": "collateralAmount",
					"type": "uint256"
				},
				{
					"internalType": "uint256",
					"name": "collateralRate",
					"type": "uint256"
				},
				{
					"internalType": "string",
					"name": "loanTime",
					"type": "string"
				},
				{
					"internalType": "bool",
					"name": "isFinish",
					"type": "bool"
				},
				{
					"internalType": "string",
					"name": "repayTime",
					"type": "string"
				}
			],
			"stateMutability": "view",
			"type": "function"
		},
		{
			"inputs": [
				{
					"internalType": "string",
					"name": "_loanTime",
					"type": "string"
				},
				{
					"internalType": "address",
					"name": "_collateralToken",
					"type": "address"
				},
				{
					"internalType": "uint256",
					"name": "tokenAmount",
					"type": "uint256"
				}
			],
			"name": "depositCollateral",
			"outputs": [],
			"stateMutability": "nonpayable",
			"type": "function"
		},
		{
			"inputs": [
				{
					"internalType": "address",
					"name": "user",
					"type": "address"
				}
			],
			"name": "getLoanDetails",
			"outputs": [
				{
					"components": [
						{
							"internalType": "address",
							"name": "loanTokenAddress",
							"type": "address"
						},
						{
							"internalType": "uint256",
							"name": "loanAmount",
							"type": "uint256"
						},
						{
							"internalType": "address",
							"name": "collateralTokenAddress",
							"type": "address"
						},
						{
							"internalType": "uint256",
							"name": "collateralAmount",
							"type": "uint256"
						},
						{
							"internalType": "uint256",
							"name": "collateralRate",
							"type": "uint256"
						},
						{
							"internalType": "string",
							"name": "loanTime",
							"type": "string"
						},
						{
							"internalType": "bool",
							"name": "isFinish",
							"type": "bool"
						},
						{
							"internalType": "string",
							"name": "repayTime",
							"type": "string"
						}
					],
					"internalType": "struct TokenLending.Collateral[]",
					"name": "",
					"type": "tuple[]"
				}
			],
			"stateMutability": "view",
			"type": "function"
		},
		{
			"inputs": [],
			"name": "goldAmount",
			"outputs": [
				{
					"internalType": "uint256",
					"name": "",
					"type": "uint256"
				}
			],
			"stateMutability": "view",
			"type": "function"
		},
		{
			"inputs": [],
			"name": "rmb",
			"outputs": [
				{
					"internalType": "contract IRMB",
					"name": "",
					"type": "address"
				}
			],
			"stateMutability": "view",
			"type": "function"
		},
		{
			"inputs": [],
			"name": "rmbAddress",
			"outputs": [
				{
					"internalType": "address",
					"name": "",
					"type": "address"
				}
			],
			"stateMutability": "view",
			"type": "function"
		},
		{
			"inputs": [],
			"name": "rmbAmount",
			"outputs": [
				{
					"internalType": "uint256",
					"name": "",
					"type": "uint256"
				}
			],
			"stateMutability": "view",
			"type": "function"
		},
		{
			"inputs": [
				{
					"internalType": "string",
					"name": "_repayTime",
					"type": "string"
				},
				{
					"internalType": "uint8[]",
					"name": "_index",
					"type": "uint8[]"
				}
			],
			"name": "withdrawCollateral",
			"outputs": [],
			"stateMutability": "nonpayable",
			"type": "function"
		}
	]
}